:100000000C942A000C9464010C948D010C94B6019C
:100010000C943C000C943C000C943C000C943C0070
:100020000C943C000C943C000C9400020C943C009A
:100030000C943C000C943C000C943C000C943C0050
:100040000C943C000C943C000C943C000C943C0040
:100050000C943C0011241FBECFE5D8E0DEBFCDBF1D
:1000600020E0A0E6B0E001C01D92A836B207E1F79B
:100070000E9467030C9469030C9400000895FC012E
:10008000892B91F06115710579F04115510561F0E9
:100090006083718342835383148215821682178290
:1000A0001086118680E0089581E00895FC01892B77
:1000B00009F1208531858281938128173907D0F491
:1000C000A081B18184819581A80FB91F6C9384812F
:1000D00095810196848395832281338182179307CA
:1000E00010F0148215828085918501968087918712
:1000F00080E0089581E00895FC01892B19F16115D4
:10010000710501F180859185892BE1F0A081B18194
:1001100086819781A80FB91F8C91DB018C93868112
:100120009781019686839783228133818217930773
:1001300010F01682178280859185019780879187BC
:1001400080E0089581E00895FC01892B69F0611534
:10015000710551F091E020853185232B09F090E065
:10016000FB01908380E0089581E00895009789F075
:100170006115710571F021E0FC0140855185828196
:1001800093814817590708F420E0FB01208380E0A1
:10019000089581E00895009759F06115710541F0C7
:1001A000FC0180859185FB018083918380E0089527
:1001B00081E00895FC01892B41F01482158216829A
:1001C00017821086118680E0089581E0089515BE9B
:1001D00084B78F7B84BF1BBE1ABE80E00895813038
:1001E00071F08230B9F0811123C0643008F585B711
:1001F0008C7F85BF85B7862B85BF80E008956430EE
:10020000C0F485B7837F85BF85B7660F660F682BFF
:1002100065BFF3CF8EEF860F823050F484B78F7BAB
:1002200084BF84B760FB662766F9682B64BFE5CF9F
:1002300081E00895813049F0823051F081110BC086
:100240008BB780648BBF80E008958BB78068FACF4E
:100250008BB78062F7CF81E00895813049F082301A
:1002600051F081110BC08BB78F7B8BBF80E008955D
:100270008BB78F77FACF8BB78F7DF7CF81E008955B
:10028000813049F0823051F081110BC08AB780640F
:100290008ABF80E008958AB78068FACF8AB7806203
:1002A000F7CF81E008956115710561F0833050F456
:1002B000E82FF0E0EE0FFF1FE05AFF4F60837183DD
:1002C00080E0089581E008951F920F920FB60F927B
:1002D00011242F933F934F935F936F937F938F934B
:1002E0009F93AF93BF93EF93FF93E0916000F091E2
:1002F0006100309709F00995FF91EF91BF91AF919F
:100300009F918F917F916F915F914F913F912F912D
:100310000F900FBE0F901F9018951F920F920FB65F
:100320000F9211242F933F934F935F936F937F937B
:100330008F939F93AF93BF93EF93FF93E0916200EE
:10034000F0916300309709F00995FF91EF91BF910B
:10035000AF919F918F917F916F915F914F913F915D
:100360002F910F900FBE0F901F9018951F920F9214
:100370000FB60F9211242F933F934F935F936F9378
:100380007F938F939F93AF93BF93EF93FF93E091EE
:100390006400F0916500309709F00995FF91EF91A5
:1003A000BF91AF919F918F917F916F915F914F918D
:1003B0003F912F910F900FBE0F901F9018958DE0D9
:1003C00083BF8DE48CBF12BE89B7826089BF80E095
:1003D000089583B7856083BF80E0089583B78A7FDF
:1003E00083BF80E008958CBF80E00895009731F0CE
:1003F000809366009093670080E0089581E00895FF
:100400001F920F920FB60F9211242F933F934F9389
:100410005F936F937F938F939F93AF93BF93EF936C
:10042000FF93E0916600F0916700309709F009951D
:10043000FF91EF91BF91AF919F918F917F916F91BC
:100440005F914F913F912F910F900FBE0F901F9092
:10045000189581B3806381BB82EA8FBD8AE18EBD2E
:100460008FE19EE497BD86BD88EE93E09BBD8ABD7B
:1004700099BD88BD80E00895813018F031F081E0A9
:1004800008957BBD6ABD80E0089579BD68BDFBCF4E
:100490006830B0F4823061F188F4811117C081E0D6
:1004A00090E09C0101C0220F6A95EAF7622F8AB39F
:1004B000413041F4822B8ABB80E00895833051F1B2
:1004C00081E00895609568236ABBF6CF81E090E0F3
:1004D0009C0101C0220F6A95EAF7622F87B3413071
:1004E00019F4822B87BBE8CF6095682367BBE4CF04
:1004F00081E090E09C0101C0220F6A95EAF7622F2B
:1005000084B3413019F4822B84BBD6CF6095682325
:1005100064BBD2CF81E090E09C0101C0220F6A95BC
:10052000EAF7622F81B3413019F4822B81BBC4CF2B
:100530006095682361BBC0CF6830B0F4823061F150
:1005400088F4811117C081E090E09C0101C0220F66
:100550006A95EAF7622F8BB3413041F4822B8BBB53
:1005600080E00895833051F181E00895609568231B
:100570006BBBF6CF81E090E09C0101C0220F6A9531
:10058000EAF7622F88B3413019F4822B88BBE8CF99
:100590006095682368BBE4CF81E090E09C0101C0D6
:1005A000220F6A95EAF7622F85B3413019F4822B46
:1005B00085BBD6CF6095682365BBD2CF81E090E044
:1005C0009C0101C0220F6A95EAF7622F82B3413085
:1005D00019F4822B82BBC4CF6095682362BBC0CF65
:1005E000FA013097A1F0683090F48230A1F068F4FD
:1005F00081110FC089B390E002C0959587956A95E7
:10060000E2F78170808380E00895833031F081E0EB
:10061000089586B3F0CF83B3EECF80B3ECCF8230B2
:1006200061F028F4811107C06BBB80E0089583302E
:1006300031F081E0089568BBF8CF65BBF6CF62BBAF
:10064000F4CFFB01309759F0823069F030F481111A
:1006500008C089B3808380E00895833031F081E061
:10066000089586B3F7CF83B3F5CF80B3F3CF683067
:1006700088F48230D1F060F481110EC08BB321E098
:1006800001C0220F6A95EAF782278BBB80E00895AC
:100690008330A1F081E0089588B321E001C0220FEA
:1006A0006A95EAF7822788BBF1CF85B321E001C0C4
:1006B000220F6A95EAF7822785BBE8CF82B321E053
:1006C00001C0220F6A95EAF7822782BBDFCF7894B8
:0606D000FFCFF894FFCFFC
:00000001FF
