:100000000C942A000C94BB000C94E4000C940D0199
:100010000C9447000C9447000C9447000C94470044
:100020000C9447000C9447000C945B010C9447001F
:100030000C9447000C9484010C9447000C944700E6
:100040000C9447000C9447000C9447000C94470014
:100050000C94470011241FBECFE5D8E0DEBFCDBF12
:1000600010E0A0E6B0E0EAE5F3E002C005900D92F2
:10007000A036B107D9F720E0A0E6B0E001C01D929C
:10008000A237B207E1F70E9449000C94AB010C942F
:1000900000000E94360180E00E94AD0081E00E94D5
:1000A000AD0080E00E94B3002FEF83ED90E321507C
:1000B00080409040E1F700C0000080E00E94B7005F
:1000C0002FEF83ED90E3215080409040E1F700C096
:1000D000000081E00E94B3002FEF83ED90E32150F8
:1000E00080409040E1F700C0000081E00E94B7002E
:1000F0002FEF83ED90E3215080409040E1F700C066
:100100000000CFCFFC01892B31F12FB7F894408547
:1001100051858281938148175907D8F4A081B18114
:1001200084819581A80FB91F6C9384819581019674
:1001300084839583428153818417950710F014823C
:1001400015828085918501968087918780E02FBFF9
:10015000089581E0FCCF81E00895982F81E09230EE
:1001600008F480E0089560ED77E00C94490168EEB2
:1001700073E00C9449011F920F920FB60F92112455
:100180002F933F934F935F936F937F938F939F939F
:10019000AF93BF93EF93FF93E0916000F091610004
:1001A000309709F00995FF91EF91BF91AF919F9121
:1001B0008F917F916F915F914F913F912F910F9010
:1001C0000FBE0F901F9018951F920F920FB60F92AF
:1001D00011242F933F934F935F936F937F938F934C
:1001E0009F93AF93BF93EF93FF93E0916200F091E1
:1001F0006300309709F00995FF91EF91BF91AF919E
:100200009F918F917F916F915F914F913F912F912E
:100210000F900FBE0F901F9018951F920F920FB660
:100220000F9211242F933F934F935F936F937F937C
:100230008F939F93AF93BF93EF93FF93E0916400ED
:10024000F0916500309709F00995FF91EF91BF910A
:10025000AF919F918F917F916F915F914F913F915E
:100260002F910F900FBE0F901F90189581B3806350
:1002700081BB82EA8FBD8AE18EBD8EE487BD8FE1AE
:1002800086BD93E09BBD88EE8ABD99BD88BD80E0A8
:1002900008959B01285E3340293E334050F481305D
:1002A00020F47BBD6ABD80E0089519F479BD68BD76
:1002B000FACF81E008951F920F920FB60F9211248A
:1002C0002F933F934F935F936F937F938F939F935E
:1002D000AF93BF93EF93FF93E0916600F0916700B7
:1002E000309709F00995FF91EF91BF91AF919F91E0
:1002F0008F917F916F915F914F913F912F910F90CF
:100300000FBE0F901F9018951F920F920FB60F926D
:1003100011242F933F934F935F936F937F938F930A
:100320009F93AF93BF93EF93FF936CB188E690E0F8
:100330000E948200FF91EF91BF91AF919F918F91A9
:100340007F916F915F914F913F912F910F900FBED1
:0A0350000F901F901895F894FFCF4E
:00000001FF
