:100000000C942A000C94B6000C94DF000C940801A8
:100010000C9447000C9447000C9447000C94470044
:100020000C9447000C9447000C9473010C94470007
:100030000C9447000C94C7010C9447000C944700A3
:100040000C9447000C9447000C9447000C94470014
:100050000C94470011241FBECFE5D8E0DEBFCDBF12
:1000600010E0A0E6B0E0E0EEF3E002C005900D92F3
:10007000A83CB107D9F721E0A8ECB0E001C01D927F
:10008000AA31B207E1F70E9449000C94EE010C94EA
:1000900000000E949C01789480E690E00E94B701E5
:1000A0000E944101811521F081E790E00E94B70193
:1000B0000E944B01811113C083E890E00E94B701B8
:1000C00080E40E946001811107C082E990E00E94F3
:1000D000B7010E945C01FFCF83EA90E0F8CF85EB87
:1000E00090E00E94B701F7CFFC01892B91F06115D8
:1000F000710579F04115510561F060837183428388
:10010000538314821582168217821086118680E02E
:10011000089581E00895FC01892B31F12FB7F894FF
:10012000408551858281938148175907D8F4A08171
:10013000B18184819581A80FB91F6C9384819581C9
:10014000019684839583428153818417950710F02B
:10015000148215828085918501968087918780E041
:100160002FBF089581E0FCCF81E008951F920F9288
:100170000FB60F9211242F933F934F935F936F937A
:100180007F938F939F93AF93BF93EF93FF93E091F0
:10019000C800F091C900309709F00995FF91EF91DF
:1001A000BF91AF919F918F917F916F915F914F918F
:1001B0003F912F910F900FBE0F901F9018951F9297
:1001C0000F920FB60F9211242F933F934F935F938B
:1001D0006F937F938F939F93AF93BF93EF93FF930F
:1001E000E091CA00F091CB00309709F00995FF919A
:1001F000EF91BF91AF919F918F917F916F915F919F
:100200004F913F912F910F900FBE0F901F90189517
:100210001F920F920FB60F9211242F933F934F937B
:100220005F936F937F938F939F93AF93BF93EF935E
:10023000FF93E091CC00F091CD00309709F0099543
:10024000FF91EF91BF91AF919F918F917F916F91AE
:100250005F914F913F912F910F900FBE0F901F9084
:1002600018952FEF3FEF06B607FC03C021153105A7
:1002700029F481E0232B09F080E008952150310911
:10028000F2CF81B18C7F81B980E280B912B884E06D
:1002900086BF80E0089584EA86BF0E943101811103
:1002A0000AC081B1887F883029F091B1987F81E0C0
:1002B000903109F480E0089584E986BF80E00895D4
:1002C00083B984E886BF0E94310181110BC091B1CE
:1002D000987F81E0983209F480E021E0983109F4B8
:1002E00020E0822308951F920F920FB60F921124DF
:1002F0002F933F934F935F936F937F938F939F932E
:10030000AF93BF93EF93FF93E091CE00F091CF00B6
:10031000309709F00995FF91EF91BF91AF919F91AF
:100320008F917F916F915F914F913F912F910F909E
:100330000FBE0F901F90189540E450E06AED70E0FA
:1003400080ED90E00E94740081110AC01AB859989B
:1003500010BC93E399B996E890BD98E99AB90895CD
:1003600081E008955D9BFECF8CB980E00895CF9326
:10037000DF93EC01892B29F481E006C021960E94CD
:10038000B20188818111FACFDF91CF9108951F9238
:100390000F920FB60F9211242F933F934F935F93B9
:1003A0006F937F938F939F93AF93BF93EF93FF933D
:1003B0006CB180ED90E00E948B00FF91EF91BF91B6
:1003C000AF919F918F917F916F915F914F913F91ED
:1003D0002F910F900FBE0F901F901895F894FFCF9C
:1003E00049324320544553542053544152540D0A2A
:1003F0000049324320494E4954204641494C454426
:100400000D0A00493243205354415254204F4B0DA2
:100410000A00493243204445564943452041434B55
:100420000D0A0049324320444556494345204E4178
:10043000434B0D0A00493243205354415254204645
:0804400041494C45440D0A003E
:00000001FF
