:100000000C942A000C9409020C9432020C945B02AA
:100010000C9447000C9447000C9447000C94470044
:100020000C9447000C9447000C949A020C944700DF
:100030000C9447000C94C3020C9447000C944700A6
:100040000C9447000C9447000C9447000C94470014
:100050000C94470011241FBECFE5D8E0DEBFCDBF12
:1000600010E0A0E6B0E0E8EDF5E002C005900D92EA
:10007000A036B107D9F720E0A0E6B0E001C01D929C
:10008000A437B207E1F70E9449000C94EA020C94ED
:1000900000000E941C0101E010E08111FFCFC0E0D0
:1000A000D0E0C8010C2E02C0880F991F0A94E2F715
:1000B0000E94D4008FEF92E527E0815090402040CD
:1000C000E1F700C000002196C031D10551F780E072
:1000D00090E00E94D4008FEF94E32CE08150904098
:1000E0002040E1F700C0000085E595E00E94D400C3
:1000F0008FEF96E121E1815090402040E1F700C070
:1001000000008AEA9AE00E94D4008FEF96E121E194
:10011000815090402040E1F700C0000080E090E175
:100120000E94D4008FEF96E121E181509040204061
:10013000E1F700C0000080E090E00E94D4008FEF63
:1001400096E121E1815090402040E1F700C000009D
:10015000A6CFFC01892B31F12FB7F894408551854A
:100160008281938148175907D8F4A081B181848195
:100170009581A80FB91F6C93848195810196848322
:100180009583428153818417950710F0148215825C
:100190008085918501968087918780E02FBF0895A3
:1001A00081E0FCCF81E00895CF92DF92EF92FF9241
:1001B0000F931F93CF93DF9300D000D00F92CDB752
:1001C000DEB76C01D9828A838E010F5F1F4F7E01DB
:1001D00083E0E80EF11CED82FC826D817C81F801E8
:1001E00080810E948D02811579F081E00F900F903F
:1001F0000F900F900F90DF91CF911F910F91FF9073
:10020000EF90DF90CF9008950F5F1F4F0E151F05E1
:1002100021F741E064E081E00E94B5018111E5CF62
:1002200040E064E081E00E94B5018111DECFC09220
:100230006000D0926100DACF0E948402811117C061
:1002400041E064E081E00E943901811110C040E08A
:1002500064E081E00E94B501811109C08FEF9FEF3A
:10026000809360009093610001960C94D40081E02B
:1002700008956830A8F4823009F441C070F4811107
:1002800022C081E001C0880F6A95EAF7413051F43D
:100290009AB3892B8ABB80E00895833009F44BC060
:1002A00081E00895282F2095423039F49AB39223A3
:1002B0009ABB9BB3892B8BBBEECF8AB382238ABBBD
:1002C0008BB38223F8CF81E001C0880F6A95EAF7EB
:1002D000413021F497B3892B87BBDDCF282F2095A0
:1002E000423039F497B3922397BB98B3892B88BBDC
:1002F000D2CF87B3822387BB88B38223F8CF81E034
:1003000001C0880F6A95EAF7413021F494B3892B34
:1003100084BBC1CF282F2095423039F494B3922367
:1003200094BB95B3892B85BBB6CF84B3822384BBA2
:1003300085B38223F8CF81E090E09C0101C0220FB9
:100340006A95EAF7413021F481B3822B81BBA3CFB8
:10035000922F909581B3892381BB82B3423019F4E7
:10036000822B82BB98CF8923FCCF6830B0F48230D7
:1003700061F188F4811117C081E090E09C0101C017
:10038000220F6A95EAF7622F8BB3413041F4822B3A
:100390008BBB80E00895833051F181E00895609532
:1003A00068236BBBF6CF81E090E09C0101C0220F77
:1003B0006A95EAF7622F88B3413019F4822B88BB23
:1003C000E8CF6095682368BBE4CF81E090E09C01B2
:1003D00001C0220F6A95EAF7622F85B3413019F404
:1003E000822B85BBD6CF6095682365BBD2CF81E0D9
:1003F00090E09C0101C0220F6A95EAF7622F82B358
:10040000413019F4822B82BBC4CF6095682362BB54
:10041000C0CF1F920F920FB60F9211242F933F93CC
:100420004F935F936F937F938F939F93AF93BF93FC
:10043000EF93FF93E0916200F0916300309709F031
:100440000995FF91EF91BF91AF919F918F917F910E
:100450006F915F914F913F912F910F900FBE0F9031
:100460001F9018951F920F920FB60F9211242F9381
:100470003F934F935F936F937F938F939F93AF932C
:10048000BF93EF93FF93E0916400F0916500309784
:1004900009F00995FF91EF91BF91AF919F918F91D5
:1004A0007F916F915F914F913F912F910F900FBE70
:1004B0000F901F9018951F920F920FB60F92112454
:1004C0002F933F934F935F936F937F938F939F935C
:1004D000AF93BF93EF93FF93E0916600F0916700B5
:1004E000309709F00995FF91EF91BF91AF919F91DE
:1004F0008F917F916F915F914F913F912F910F90CD
:100500000FBE0F901F90189587B3806A87BBBE9867
:1005100081E58DB9709880E008956115710541F00D
:100520008FB9779BFECF8FB1FB01808380E0089568
:1005300081E008951F920F920FB60F9211242F930E
:100540003F934F935F936F937F938F939F93AF935B
:10055000BF93EF93FF93E0916800F09169003097AB
:1005600009F00995FF91EF91BF91AF919F918F9104
:100570007F916F915F914F913F912F910F900FBE9F
:100580000F901F9018951F920F920FB60F92112483
:100590002F933F934F935F936F937F938F939F938B
:1005A000AF93BF93EF93FF936CB18AE690E00E9404
:1005B000A900FF91EF91BF91AF919F918F917F9192
:1005C0006F915F914F913F912F910F900FBE0F90C0
:0805D0001F901895F894FFCF6D
:00000001FF
