:100000000C942A000C9476020C949F020C94C80263
:100010000C9447000C9447000C9447000C94470044
:100020000C9447000C9447000C9433030C94470045
:100030000C9447000C945C030C9447000C9447000C
:100040000C9447000C9447000C9447000C94470014
:100050000C94470011241FBECFE5D8E0DEBFCDBF12
:1000600010E0A0E6B0E0EAE0F7E002C005900D92F3
:10007000AE3AB107D9F720E0AEEAB0E001C01D9278
:10008000A13EB207E1F70E946E000C9483030C942A
:100090000000CF93DF9300D000D0CDB7DEB7198238
:1000A0001A821B821C8289819A81AB81BC81953323
:1000B000AC40B10538F00F900F900F900F90DF918A
:1000C000CF91089589819A81AB81BC810196A11D50
:1000D000B11D89839A83AB83BC83E5CF0E94FB006B
:1000E00060E670E080E00E94AF016EE670E081E0C3
:1000F0000E94AF010E9449006FE770E080E00E941B
:10010000AF016DE870E081E00E94AF010E944900FC
:100110000E9442010E9449006FE770E080E00E9467
:10012000AF016DE870E081E00E94AF010E944900DC
:1001300060E080E00E944C018EE990E00E947D0129
:1001400060E081E00E944C0188E50E945A0189E547
:100150000E945A018AE50E945A01FFCFFC01892BB7
:1001600031F12FB7F89440855185828193814817EA
:100170005907D8F4A081B18184819581A80FB91F56
:100180006C93848195810196848395834281538108
:100190008417950710F01482158280859185019649
:1001A0008087918780E02FBF089581E0FCCF81E0B8
:1001B0000895CF93DF930F92CDB7DEB789830E9466
:1001C0000B03811113C08CE70E94200381110EC024
:1001D0000E94200381110AC089810E94200381119D
:1001E00005C00F90DF91CF910C941C0381E00F901C
:1001F000DF91CF9108950E940103811511F081E0F4
:1002000008952FE788E391E0215080409040E1F786
:1002100000C0000088E30E94D9008111F0CF8FE078
:1002200097E20197F1F700C0000088E30E94D9002F
:100230008111E5CF8FEC97E00197F1F700C0000046
:1002400088E30E94D9008111DACF88E00E94D900AA
:100250008111D5CF81E00E94D9008111D0CF8FE9E3
:100260009FE00197F1F700C0000086E00E94D900EE
:100270008111C5CF8CE00E94D9008111C0CF1092AE
:10028000AE00089581E00E94D900811103C0109250
:10029000AE00089581E00895823050F4603140F45A
:1002A0008295880F880F807C862B80680C94D900FB
:1002B00081E00895CF93DF930F92CDB7DEB78983A6
:1002C0000E940B03811114C08CE70E94200381114E
:1002D0000FC080E40E94200381110AC089810E941E
:1002E0002003811105C00F90DF91CF910C941C0366
:1002F00081E00F90DF91CF9108950F931F93CF93DB
:10030000DF93EC01892B89F00E940B0381110DC052
:100310008CE70E942003811108C080E40E94200322
:100320008E010F5E1F4F811531F081E0DF91CF917B
:100330001F910F9108958881811106C0DF91CF919F
:100340001F910F910C941C032196C017D107B1F394
:100350000E942003811579F30E941C03E6CF4F927F
:100360005F926F927F928F929F92AF92BF92CF9245
:10037000DF92EF92FF920F931F93CF93DF93CDB74E
:10038000DEB762970FB6F894DEBF0FBECDBF982ED2
:1003900082E0981608F099C06115710509F495C0BE
:1003A0006E01EFEFCE1ADE0AFB019B01205F3F4F8B
:1003B000D60190E0560191115BC08081811509F44E
:1003C00056C08D933196E217F307A9F7092D10E077
:1003D000119501951109007110E001551F4F90E131
:1003E000E92E812C098B1A8B552490FA56F891FA34
:1003F00057F8F0E18F16F1F18091AE00811531F0E0
:10040000F6019081F80180819817A1F1F0E1EF12D7
:1004100001C0E82C83948FEFC81AD80A0F5F1F4FD2
:10042000E1E18E12E6CF80E1F501A989BA89019058
:100430000D928A95E1F7F1E09F1609F454C080E02F
:1004400062960FB6F894DEBF0FBECDBFDF91CF919D
:100450001F910F91FF90EF90DF90CF90BF90AF90E2
:100460009F908F907F906F905F904F90089591E054
:1004700080E2A7CF80E1E81203C080E1E82ECACF76
:10048000482C4E188E14C9F3852D8E2980680E9441
:10049000D90081111AC00E940B03811116C08CE78C
:1004A0000E942003811111C080E40E942003811169
:1004B0000CC0EA0CFB2CF11C3701F30180810E9477
:1004C0002003811521F00E941C0381E0B9CFFFEFCA
:1004D0006F1A7F0A862D8E19841578F30E941C03EB
:1004E000811559F2F2CF9092AE00A9CF1F920F92D0
:1004F0000FB60F9211242F933F934F935F936F93F7
:100500007F938F939F93AF93BF93EF93FF93E0916C
:10051000CF00F091D000309709F00995FF91EF914D
:10052000BF91AF919F918F917F916F915F914F910B
:100530003F912F910F900FBE0F901F9018951F9213
:100540000F920FB60F9211242F933F934F935F9307
:100550006F937F938F939F93AF93BF93EF93FF938B
:10056000E091D100F091D200309709F00995FF9108
:10057000EF91BF91AF919F918F917F916F915F911B
:100580004F913F912F910F900FBE0F901F90189594
:100590001F920F920FB60F9211242F933F934F93F8
:1005A0005F936F937F938F939F93AF93BF93EF93DB
:1005B000FF93E091D300F091D400309709F00995B2
:1005C000FF91EF91BF91AF919F918F917F916F912B
:1005D0005F914F913F912F910F900FBE0F901F9001
:1005E00018952FEF3FEF06B607FC03C02115310524
:1005F00029F481E0232B09F080E00895215031098E
:10060000F2CF81B18C7F81B980E280B912B884E0E9
:1006100086BF80E0089584EA86BF0E94F1028111BE
:100620000AC081B1887F883029F091B1987F81E03C
:10063000903109F480E0089584E986BF80E0089550
:1006400083B984E886BF0E94F10281110BC091B189
:10065000987F81E0983209F480E021E0983109F434
:1006600020E0822308951F920F920FB60F9211245B
:100670002F933F934F935F936F937F938F939F93AA
:10068000AF93BF93EF93FF93E091D500F091D60025
:10069000309709F00995FF91EF91BF91AF919F912C
:1006A0008F917F916F915F914F913F912F910F901B
:1006B0000FBE0F901F9018951F920F920FB60F92BA
:1006C00011242F933F934F935F936F937F938F9357
:1006D0009F93AF93BF93EF93FF936CB187ED90E03F
:1006E0000E94AE00FF91EF91BF91AF919F918F91CA
:1006F0007F916F915F914F913F912F910F900FBE1E
:0A0700000F901F901895F894FFCF9A
:10070A00465245453A3620204F43433A3000494E37
:10071A003A49444C45204F55543A49444C450046C1
:10072A005245453A3320204F43433A3300494E3A23
:10073A004F50454E204F55543A49444C450052417A
:0E074A0057204C494E45203120544553540051
:00000001FF
