:100000000C942A000C9439030C9462030C948B0317
:100010000C9447000C9447000C9447000C94470044
:100020000C9447000C9447000C9468040C9447000F
:100030000C9447000C9491040C9447000C944700D6
:100040000C9447000C9447000C9447000C94470014
:100050000C94470011241FBECFE5D8E0DEBFCDBF12
:1000600010E0A0E6B0E0E4E7F9E002C005900D92F0
:10007000AE3AB107D9F720E0AEEAB0E001C01D9278
:10008000A13EB207E1F70E946E000C94B8040C94F4
:100090000000CF93DF9300D000D0CDB7DEB7198238
:1000A0001A821B821C8289819A81AB81BC81953323
:1000B000AC40B10538F00F900F900F900F90DF918A
:1000C000CF91089589819A81AB81BC810196A11D50
:1000D000B11D89839A83AB83BC83E5CF0E94FB006B
:1000E00060E670E080E00E949B016EE670E081E0D7
:1000F0000E949B010E9449006FE770E080E00E942F
:100100009B016DE870E081E00E949B010E94490024
:100110000E9442010E9449006FE770E080E00E9467
:100120009B016DE870E081E00E949B010E94490004
:1001300060E080E00E944C018EE990E00E947D0129
:1001400060E081E00E944C0188E50E945A0189E547
:100150000E945A018AE50E945A01FFCFFC01892BB7
:1001600031F12FB7F89440855185828193814817EA
:100170005907D8F4A081B18184819581A80FB91F56
:100180006C93848195810196848395834281538108
:100190008417950710F01482158280859185019649
:1001A0008087918780E02FBF089581E0FCCF81E0B8
:1001B0000895CF93DF930F92CDB7DEB789830E9466
:1001C0001B04811113C08CE70E94480481110EC0EA
:1001D0000E94480481110AC089810E94480481114B
:1001E00005C00F90DF91CF910C94310481E00F9006
:1001F000DF91CF9108950E941104811511F081E0E3
:1002000008952FE788E391E0215080409040E1F786
:1002100000C0000088E30E94D9008111F0CF8FE078
:1002200097E20197F1F700C0000088E30E94D9002F
:100230008111E5CF8FEC97E00197F1F700C0000046
:1002400088E30E94D9008111DACF88E00E94D900AA
:100250008111D5CF81E00E94D9008111D0CF8FE9E3
:100260009FE00197F1F700C0000086E00E94D900EE
:100270008111C5CF8CE00E94D9008111C0CF1092AE
:10028000AE00089581E00E94D900811103C0109250
:10029000AE00089581E00895823050F4603140F45A
:1002A0008295880F880F807C862B80680C94D900FB
:1002B00081E00895CF93DF930F92CDB7DEB78983A6
:1002C0000E941B04811114C08CE70E944804811114
:1002D0000FC080E40E94480481110AC089810E94F5
:1002E0004804811105C00F90DF91CF910C94310427
:1002F00081E00F90DF91CF9108950F931F93CF93DB
:10030000DF93009731F481E0DF91CF911F910F913E
:100310000895EC018C010F5E1F4F88818115A1F3B8
:100320002196C017D10711F480E0EECF0E945A0148
:10033000811599F3E8CF4F925F926F927F928F92DF
:100340009F92AF92BF92CF92DF92EF92FF920F9364
:100350001F93CF93DF93CDB7DEB762970FB6F894B4
:10036000DEBF0FBECDBF982E82E09816C0F081E0B0
:1003700062960FB6F894DEBF0FBECDBFDF91CF916E
:100380001F910F91FF90EF90DF90CF90BF90AF90B3
:100390009F908F907F906F905F904F900895611520
:1003A000710529F35E01EFEFAE1ABE0AFB019B0156
:1003B000205F3F4FD50190E0650191112EC08081F3
:1003C000811551F18D933196E217F307B1F7092D9D
:1003D00010E0119501951109007110E001551F4FB2
:1003E00090E1E92E812C098B1A8B552490FA56F84E
:1003F00091FA57F8F0E18F1691F08091AE008115D7
:1004000031F0F5019081F8018081981741F0F0E119
:10041000EF120AC0E82C08C091E080E2D3CF80E15F
:10042000E81218C080E1E82E83948FEFA81AB80A6A
:100430000F5F1F4FE1E18E12DDCF80E1F601A98948
:10044000BA8901900D928A95E1F7F1E09F16F9F0D3
:1004500080E08ECF482C4E188E1421F3852D8E29E6
:1004600080680E94D900811182CFEC0CFD2CF11C18
:100470003701F30180810E945A01811178CFFFEF8B
:100480006F1A7F0A862D8E19841598F3CBCF909220
:10049000AE00DECF6830A8F4823009F441C070F4B9
:1004A000811122C081E001C0880F6A95EAF74130CE
:1004B00051F49AB3892B8ABB80E00895833009F404
:1004C0004BC081E00895282F2095423039F49AB32B
:1004D00092239ABB9BB3892B8BBBEECF8AB382232B
:1004E0008ABB8BB38223F8CF81E001C0880F6A9565
:1004F000EAF7413021F497B3892B87BBDDCF282F52
:100500002095423039F497B3922397BB98B3892B47
:1005100088BBD2CF87B3822387BB88B38223F8CF2F
:1005200081E001C0880F6A95EAF7413021F494B365
:10053000892B84BBC1CF282F2095423039F494B346
:10054000922394BB95B3892B85BBB6CF84B382230A
:1005500084BB85B38223F8CF81E090E09C0101C089
:10056000220F6A95EAF7413021F481B3822B81BBD7
:10057000A3CF922F909581B3892381BB82B3423060
:1005800019F4822B82BB98CF8923FCCF6830B0F45A
:10059000823061F188F4811117C081E090E09C0104
:1005A00001C0220F6A95EAF7622F8BB3413041F404
:1005B000822B8BBB80E00895833051F181E0089558
:1005C000609568236BBBF6CF81E090E09C0101C091
:1005D000220F6A95EAF7622F88B3413019F4822B13
:1005E00088BBE8CF6095682368BBE4CF81E090E0EA
:1005F0009C0101C0220F6A95EAF7622F85B3413052
:1006000019F4822B85BBD6CF6095682365BBD2CF0A
:1006100081E090E09C0101C0220F6A95EAF7622F09
:1006200082B3413019F4822B82BBC4CF609568231A
:1006300062BBC0CFFA013097A1F0683090F48230ED
:10064000A1F068F481110FC089B390E002C09595C4
:1006500087956A95E2F78170808380E00895833002
:1006600031F081E0089586B3F0CF83B3EECF80B34D
:10067000ECCF1F920F920FB60F9211242F933F933E
:100680004F935F936F937F938F939F93AF93BF939A
:10069000EF93FF93E091CF00F091D000309709F0F5
:1006A0000995FF91EF91BF91AF919F918F917F91AC
:1006B0006F915F914F913F912F910F900FBE0F90CF
:1006C0001F9018951F920F920FB60F9211242F931F
:1006D0003F934F935F936F937F938F939F93AF93CA
:1006E000BF93EF93FF93E091D100F091D200309748
:1006F00009F00995FF91EF91BF91AF919F918F9173
:100700007F916F915F914F913F912F910F900FBE0D
:100710000F901F9018951F920F920FB60F921124F1
:100720002F933F934F935F936F937F938F939F93F9
:10073000AF93BF93EF93FF93E091D300F091D40078
:10074000309709F00995FF91EF91BF91AF919F917B
:100750008F917F916F915F914F913F912F910F906A
:100760000FBE0F901F90189542E060E082E00C945D
:100770004A0242E061E082E00C944A0241E061E01A
:1007800082E00E944A0240E061E082E00C94C602EE
:1007900041E060E082E00E944A0240E060E082E0E6
:1007A0000C94C602CF93DF9300D0CDB7DEB70E9482
:1007B000B90385E38A95F1F700000E94B40385E34D
:1007C0008A95F1F700001982AE014F5F5F4F61E03B
:1007D00082E00E941A0389818A830E94C80385E30C
:1007E0008A95F1F700008A810F900F90DF91CF91E9
:1007F0000895811599F00E94B90385E38A95F1F770
:1008000000000E94B40385E38A95F1F700000E947E
:10081000C80385E38A95F1F7000008950E94BE039E
:10082000ECCF0E94B4030E94B90385E38A95F1F7E7
:10083000000080E008950E94B9030E94B40385E39C
:100840008A95F1F700000E94BE0385E38A95F1F7CF
:1008500000000E94C80385E38A95F1F7000080E05C
:1008600008950E94BE0385E38A95F1F700000E9477
:10087000B40385E38A95F1F700000E94B90385E38C
:100880008A95F1F7000080EA8A95F1F780E00895F3
:100890000F931F93CF93DF93C7E0D0E0082F10E0B2
:1008A000C8010C2E02C0959587950A94E2F78170D5
:1008B0000E94F9032197A0F70E94D203982F81E0AC
:1008C000911101C080E0DF91CF911F910F910895A8
:1008D0001F920F920FB60F9211242F933F934F93B5
:1008E0005F936F937F938F939F93AF93BF93EF9398
:1008F000FF93E091D500F091D600309709F009956B
:10090000FF91EF91BF91AF919F918F917F916F91E7
:100910005F914F913F912F910F900FBE0F901F90BD
:1009200018951F920F920FB60F9211242F933F9399
:100930004F935F936F937F938F939F93AF93BF93E7
:10094000EF93FF936CB187ED90E00E94AE00FF91B2
:10095000EF91BF91AF919F918F917F916F915F9137
:100960004F913F912F910F900FBE0F901F901895B0
:04097000F894FFCF29
:10097400465245453A3620204F43433A3000494ECB
:100984003A49444C45204F55543A49444C45004655
:100994005245453A3320204F43433A3300494E3AB7
:1009A4004F50454E204F55543A49444C450052410E
:0E09B40057204C494E452031205445535400E5
:00000001FF
