:100000000C942A000C944C000C9475000C949E00E7
:100010000C9447000C9447000C9447000C94470044
:100020000C9447000C9447000C94DA000C944700A1
:100030000C9447000C9447000C9447000C94470024
:100040000C9447000C9447000C9447000C94470014
:100050000C94470011241FBECFE5D8E0DEBFCDBF12
:1000600010E0A0E6B0E0EAE0F2E002C005900D92F8
:10007000A036B107D9F720E0A0E6B0E001C01D929C
:10008000A836B207E1F70E9449000C9403010C94D2
:1000900000000E94C700FFCF1F920F920FB60F9271
:1000A00011242F933F934F935F936F937F938F937D
:1000B0009F93AF93BF93EF93FF93E0916000F09114
:1000C0006100309709F00995FF91EF91BF91AF91D1
:1000D0009F918F917F916F915F914F913F912F9160
:1000E0000F900FBE0F901F9018951F920F920FB692
:1000F0000F9211242F933F934F935F936F937F93AE
:100100008F939F93AF93BF93EF93FF93E091620020
:10011000F0916300309709F00995FF91EF91BF913D
:10012000AF919F918F917F916F915F914F913F918F
:100130002F910F900FBE0F901F9018951F920F9246
:100140000FB60F9211242F933F934F935F936F93AA
:100150007F938F939F93AF93BF93EF93FF93E09120
:100160006400F0916500309709F00995FF91EF91D7
:10017000BF91AF919F918F917F916F915F914F91BF
:100180003F912F910F900FBE0F901F90189581B344
:10019000806381BB82EA8FBD8AE18EBD8EE487BD1C
:1001A0008FE186BD1BBC80ED8ABD19BC88EE88BD81
:1001B00080E008951F920F920FB60F9211242F9393
:1001C0003F934F935F936F937F938F939F93AF93DF
:1001D000BF93EF93FF93E0916600F0916700309733
:1001E00009F00995FF91EF91BF91AF919F918F9188
:1001F0007F916F915F914F913F912F910F900FBE23
:0A0200000F901F901895F894FFCF9F
:00000001FF
