:100000000C942A000C9463010C948C010C94B5019F
:100010000C9447000C9447000C9447000C94470044
:100020000C9447000C9447000C94DE010C9447009C
:100030000C9447000C9447000C9447000C94470024
:100040000C9447000C9447000C9447000C94470014
:100050000C94470011241FBECFE5D8E0DEBFCDBF12
:1000600010E0A0E6B0E0E2E1F4E002C005900D92FD
:10007000A036B107D9F720E0A0E6B0E001C01D929C
:10008000A836B207E1F70E9449000C9407020C94CD
:10009000000000D0CDB7DEB719821A8266E081E099
:1000A0000E94690041E060E081E00E94930040E02E
:1000B00060E081E00E940F01BE016F5F7F4F80E032
:1000C0000E947C0089819A818130924080F341E0D6
:1000D000EFCF823010F0833069F49FEF960F9730A6
:1000E00048F48295880F880F807C87B9606866B96C
:1000F00080E0089581E00895883098F461157105D5
:1001000081F097B1907E982B97B9349A369A349BA8
:10011000FECF349A84B125B1FB018083218380E036
:10012000089581E008956830A8F4823009F441C050
:1001300070F4811122C081E001C0880F6A95EAF74E
:10014000413051F49AB3892B8ABB80E00895833003
:1001500009F44BC081E00895282F2095423039F4EE
:100160009AB392239ABB9BB3892B8BBBEECF8AB3F6
:1001700082238ABB8BB38223F8CF81E001C0880F32
:100180006A95EAF7413021F497B3892B87BBDDCF1D
:10019000282F2095423039F497B3922397BB98B318
:1001A000892B88BBD2CF87B3822387BB88B38223B6
:1001B000F8CF81E001C0880F6A95EAF7413021F459
:1001C00094B3892B84BBC1CF282F2095423039F4BA
:1001D00094B3922394BB95B3892B85BBB6CF84B3DC
:1001E000822384BB85B38223F8CF81E090E09C0119
:1001F00001C0220F6A95EAF7413021F481B3822BC6
:1002000081BBA3CF922F909581B3892381BB82B309
:10021000423019F4822B82BB98CF8923FCCF6830FF
:10022000B0F4823061F188F4811117C081E090E070
:100230009C0101C0220F6A95EAF7622F8BB341300F
:1002400041F4822B8BBB80E00895833051F181E033
:100250000895609568236BBBF6CF81E090E09C0128
:1002600001C0220F6A95EAF7622F88B3413019F472
:10027000822B88BBE8CF6095682368BBE4CF81E020
:1002800090E09C0101C0220F6A95EAF7622F85B3C6
:10029000413019F4822B85BBD6CF6095682365BBAE
:1002A000D2CF81E090E09C0101C0220F6A95EAF76D
:1002B000622F82B3413019F4822B82BBC4CF609588
:1002C000682362BBC0CF1F920F920FB60F9211240A
:1002D0002F933F934F935F936F937F938F939F934E
:1002E000AF93BF93EF93FF93E0916000F0916100B3
:1002F000309709F00995FF91EF91BF91AF919F91D0
:100300008F917F916F915F914F913F912F910F90BE
:100310000FBE0F901F9018951F920F920FB60F925D
:1003200011242F933F934F935F936F937F938F93FA
:100330009F93AF93BF93EF93FF93E0916200F0918F
:100340006300309709F00995FF91EF91BF91AF914C
:100350009F918F917F916F915F914F913F912F91DD
:100360000F900FBE0F901F9018951F920F920FB60F
:100370000F9211242F933F934F935F936F937F932B
:100380008F939F93AF93BF93EF93FF93E09164009C
:10039000F0916500309709F00995FF91EF91BF91B9
:1003A000AF919F918F917F916F915F914F913F910D
:1003B0002F910F900FBE0F901F9018951F920F92C4
:1003C0000FB60F9211242F933F934F935F936F9328
:1003D0007F938F939F93AF93BF93EF93FF93E0919E
:1003E0006600F0916700309709F00995FF91EF9151
:1003F000BF91AF919F918F917F916F915F914F913D
:100400003F912F910F900FBE0F901F901895F89469
:02041000FFCF1C
:00000001FF
