:100000000C942A000C948E000C94B7000C94E00021
:100010000C9447000C9447000C9447000C94470044
:100020000C9447000C9447000C942E010C9447004C
:100030000C9447000C9457010C9447000C94470013
:100040000C9447000C9447000C9447000C94470014
:100050000C94470011241FBECFE5D8E0DEBFCDBF12
:1000600010E0A0E6B0E0E0E0F3E002C005900D9201
:10007000A036B107D9F720E0A0E6B0E001C01D929C
:10008000A237B207E1F70E9449000C947E010C945C
:1000900000000E94090168EE73E080E00E941C01EC
:1000A0002FEF83ED90E3215080409040E1F700C0B6
:1000B00000006CED75E080E00E941C012FEF83EDE5
:1000C00090E3215080409040E1F700C00000E3CF72
:1000D000FC01892B09F120853185828193812817C4
:1000E0003907D0F4A081B18184819581A80FB91F0F
:1000F0006C938481958101968483958322813381D9
:100100008217930710F014821582808591850196DD
:100110008087918780E0089581E008951F920F9273
:100120000FB60F9211242F933F934F935F936F93CA
:100130007F938F939F93AF93BF93EF93FF93E09140
:100140006000F0916100309709F00995FF91EF91FF
:10015000BF91AF919F918F917F916F915F914F91DF
:100160003F912F910F900FBE0F901F9018951F92E7
:100170000F920FB60F9211242F933F934F935F93DB
:100180006F937F938F939F93AF93BF93EF93FF935F
:10019000E0916200F0916300309709F00995FF91BA
:1001A000EF91BF91AF919F918F917F916F915F91EF
:1001B0004F913F912F910F900FBE0F901F90189568
:1001C0001F920F920FB60F9211242F933F934F93CC
:1001D0005F936F937F938F939F93AF93BF93EF93AF
:1001E000FF93E0916400F0916500309709F0099564
:1001F000FF91EF91BF91AF919F918F917F916F91FF
:100200005F914F913F912F910F900FBE0F901F90D4
:10021000189581B3806381BB82EA8FBD8AE18EBD70
:100220008EE487BD8FE186BD93E09BBD88EE8ABDDD
:1002300099BD88BD80E008959B01285E3340293E2A
:10024000334050F4813020F47BBD6ABD80E00895D6
:1002500019F479BD68BDFACF81E008951F920F921D
:100260000FB60F9211242F933F934F935F936F9389
:100270007F938F939F93AF93BF93EF93FF93E091FF
:100280006600F0916700309709F00995FF91EF91B2
:10029000BF91AF919F918F917F916F915F914F919E
:1002A0003F912F910F900FBE0F901F9018951F92A6
:1002B0000F920FB60F9211242F933F934F935F939A
:1002C0006F937F938F939F93AF93BF93EF93FF931E
:1002D0006CB188E690E00E946800FF91EF91BF91B9
:1002E000AF919F918F917F916F915F914F913F91CE
:1002F0002F910F900FBE0F901F901895F894FFCF7D
:00000001FF
