:100000000C942A000C9465070C948E070C94B70787
:100010000C9447000C9447000C9447000C94470044
:100020000C9447000C9447000C94AA080C944700C9
:100030000C9447000C94FE080C9447000C94470065
:100040000C9447000C9447000C9447000C94470014
:100050000C94470011241FBECFE5D8E0DEBFCDBF12
:1000600010E0A0E6B0E0E2EDF2E102C005900D92F2
:10007000AA3EB107D9F721E0AAEEB0E001C01D9277
:10008000AD3FB207E1F70E944B000C9467090C9456
:1000900000000C9430060F92CDB7DEB70E941A060E
:1000A0000E94BF050E9405040E9441040E94F601BF
:1000B0000E94AB010E94BB020E94D30842E063E0B1
:1000C00083E00E9460060E943D0240E050E061E053
:1000D00070E089E490E00E94570241E050E0BA01EC
:1000E00082E092E00E94570245E050E069E170E052
:1000F0008DEA91E00E94570242E050E061E070E03A
:1001000087EF90E00E945702789483E690E00E9487
:10011000EE0811E08FE19EE40197F1F700C00000C6
:100120000E9476021983AE014F5F5F4F63E083E068
:100130000E9430078981811113C08091EA008330C9
:1001400048F080916000811529F30E94D40210923A
:100150006000E0CF8F5F8093EA008330D9F6F1CF63
:100160001092EA0010936000D5CFFC01892B91F02A
:100170006115710579F04115510561F06083718356
:100180004283538314821582168217821086118649
:1001900080E0089581E00895FC01892B31F12FB7AB
:1001A000F894408551858281938148175907D8F486
:1001B000A081B18184819581A80FB91F6C9384813E
:1001C0009581019684839583428153818417950795
:1001D00010F0148215828085918501968087918721
:1001E00080E02FBF089581E0FCCF81E008958091E9
:1001F000EB008F5F843618F48093EB000895109223
:10020000EB008091EC009091ED00A091EE00B09198
:10021000EF000196A11DB11D8093EC009093ED00BD
:10022000A093EE00B093EF0008952FB7F89460917B
:10023000EC007091ED008091EE009091EF002FBFE7
:100240000895AF92BF92CF92DF92EF92FF92CF9339
:10025000DF93CDB7DEB72B970FB6F894DEBF0FBE96
:10026000CDBF69837A838B839C834A875B87452BC9
:1002700009F46FC02A3008F46CC020E13EE040E091
:1002800050E00E9445092D833E834F8358872CE31D
:10029000C22ED12CE12CF12CA70196010E94450918
:1002A000298769817A818B819C81A70196010E94AF
:1002B0004509B62E69817A818B819C8120E43EE7D5
:1002C00045E050E00E9445096AE0C62EB901CA0126
:1002D000A70196010E944509605DEA85FB85608360
:1002E0006D817E818F819885A70196010E944509C5
:1002F000A62EB901CA01A70196010E944509605DB9
:10030000EA85FB85618380E38A0D82833AE3338348
:1003100089856AE00E942509805D8483905D9583CC
:1003200036838B2D0E942509805D8783905D9087A1
:10033000118680E02B960FB6F894DEBF0FBECDBFBE
:10034000DF91CF91FF90EF90DF90CF90BF90AF9073
:10035000089581E0EFCF80E00895CF93DF93CDB78C
:10036000DEB764970FB6F894DEBF0FBECDBF0E9414
:1003700034028B8B0E9437028A8B0E943A028C8B4C
:1003800060E08B890E94CC058A890E94C20386E4C2
:10039000898382E58A8385E48B838C838AE38D83DA
:1003A0009A89905D9E8390E29F8398872FE42987A6
:1003B00023E42A872B878C878C89805D8D879E8795
:1003C0009F87988B198ABE016F5F7F4F80E00E94E4
:1003D000AB046FE670E081E064960FB6F894DEBF80
:1003E0000FBECDBFDF91CF910C94AB041092F20001
:1003F0001092F3001092F10086E080936100109259
:10040000F00008950E943006811531F084E0809359
:10041000F2001092F30008950E945D068093F100AF
:10042000982F96959575891B982F93738695869529
:100430008373980F892F82958F70890F8F708093A7
:10044000F00096E0981B909361002091F2003091AB
:10045000F3002350310922303105E8F2863011F4DF
:1004600082E0D5CF81E0D3CF8091F10008958091D3
:10047000610008958091F0000895E9EFF0E01082A6
:10048000118212821382148215821682379681E0BD
:10049000ED34F807A1F71092F8001092F4001092D2
:1004A000F5001092F6001092F70080E008959C018C
:1004B000892BD1F061157105B9F09091F8009C304D
:1004C00098F487E0989FF0011124E750FF4F2083B4
:1004D0003183628373834483558381E086839F5F86
:1004E0009093F80080E0089581E008951F93CF93E2
:1004F000DF938091F4009091F500A091F600B09107
:10050000F7000196A11DB11D8093F4009093F500B2
:10051000A093F600B093F70010E08091F800181750
:1005200020F0DF91CF911F91089587E0189FE0019F
:100530001124C750DF4F8E818115D9F02C813D8168
:100540006091F4007091F5008091F6009091F700B1
:10055000620F731F811D911D2A813B8140E050E095
:100560000E944509672B682B692B19F4E881F981F2
:1005700009951F5FD2CFE1E5F1E01082118212826E
:1005800013821482158216821782389681E0E13830
:10059000F80799F781E080934F0110925001109273
:1005A0004D0110924E010895EF92FF920F931F9309
:1005B000CF93DF93CDB7DEB761970FB6F894DEBF68
:1005C0000FBECDBFE1E5F1E000E0F780F11409F4E2
:1005D000B6C00F5F38960630C1F761960FB6F89433
:1005E000DEBF0FBECDBFDF91CF911F910F91FF9066
:1005F000EF9008952F5F3F4F2630310559F0462F79
:10060000022E01C0440F0A94EAF7482399F7FF2409
:10061000F394F20EF801EF5AFE4FF68281E08783E1
:1006200080914F01909150018F3027E2920708F09E
:1006300083C0019680934F019093500180914D01AA
:1006400090914E01019680934D0190934E010E942E
:100650003702888BC8018F5A9E4F7C01DC01ED91D7
:10066000FD91CF0168EE73E00E943109CB012AE0D1
:1006700030E0B9010E943109805D8B87CF0164E6CB
:1006800070E00E943109CB01B9010E943109805DFF
:100690008C87CF01B9010E943109482FCB01B901E4
:1006A0000E943109805D8D87405D4E871F86F7016E
:1006B00062817381848195817E01FFEFEF1AFF0AC9
:1006C000A7010E942101811561F08DE289838A834F
:1006D0008B839AE39C838D838E839F83888789870E
:1006E0001A868FE790E00E94EE0888E990E00E9469
:1006F000EE08CE010B960E94EE0881EA90E00E947F
:10070000EE08C7010E94EE088CEA90E00E94EE0815
:10071000F801EF5AFE4F8681805D0E94E9088FEB59
:1007200090E00E94EE088889805D0E94E9088AECCA
:1007300090E00E94EE0851CF81E090E07BCF28E06E
:10074000029F80011124C8018F5A9E4F888B998B7C
:1007500080914F0190915001A889B9898D939D9303
:100760000E941501E889F9896283738384839583E4
:100770000E945D06282F217080FF49CF21E030E0E4
:10078000B9013ACFEF92FF920F931F93CF93C82FE7
:10079000873008F0CFE080918101811559F0809178
:1007A00062008C1307C080E0CF911F910F91FF90E2
:1007B000EF90089585EEE82E80E0F82E00E010E03E
:1007C00081E0002E01C0880F0A94EAF78C2341E0F3
:1007D000811101C040E0F701608181E00E94DC06E8
:1007E00081110EC0FFEFEF1AFF0A0F5F1F4F043099
:1007F000110531F7C093620081E080938101D3CF6E
:1008000081E0D2CF8FE00C94C203CF93DF93C5EE8B
:10081000D0E041E0688181E00E94600681110BC058
:10082000219680E0C93ED807A1F710928101DF919F
:10083000CF910C94020481E0DF91CF910895CF9382
:10084000DF930F92CDB7DEB789830E9447088111ED
:1008500013C08CE70E94740881110EC00E947408B6
:1008600081110AC089810E947408811105C00F900E
:10087000DF91CF910C945D0881E00F90DF91CF91D3
:1008800008950E943D08811511F081E008952FE739
:1008900088E391E0215080409040E1F700C00000E3
:1008A00088E30E941F048111F0CF8FE097E2019747
:1008B000F1F700C0000088E30E941F048111E5CF1A
:1008C0008FEC97E00197F1F700C0000088E30E94E9
:1008D0001F048111DACF88E00E941F048111D5CF57
:1008E00081E00E941F048111D0CF8FE99FE0019722
:1008F000F1F700C0000086E00E941F048111C5CFFF
:100900008CE00E941F048111C0CF109282010895D3
:10091000CF93DF930F92CDB7DEB789830E9447084C
:10092000811114C08CE70E94740881110FC080E40B
:100930000E94740881110AC089810E947408811183
:1009400005C00F90DF91CF910C945D0881E00F906E
:10095000DF91CF9108954F925F926F927F928F9225
:100960009F92AF92BF92CF92DF92EF92FF920F933E
:100970001F93CF93DF93CDB7DEB762970FB6F8948E
:10098000DEBF0FBECDBF982E82E09816C0F081E08A
:1009900062960FB6F894DEBF0FBECDBFDF91CF9148
:1009A0001F910F91FF90EF90DF90CF90BF90AF908D
:1009B0009F908F907F906F905F904F9008956115FA
:1009C000710529F35E01EFEFAE1ABE0AFB019B0130
:1009D000205F3F4FD50190E0650191112EC08081CD
:1009E000811551F18D933196E217F307B1F7092D77
:1009F00010E0119501951109007110E00D571E4F7F
:100A000090E1E92E812C098B1A8B552490FA56F827
:100A100091FA57F8F0E18F1691F0809182018115DB
:100A200031F0F5019081F8018081981741F0F0E1F3
:100A3000EF120AC0E82C08C091E080E2D3CF80E139
:100A4000E81218C080E1E82E83948FEFA81AB80A44
:100A50000F5F1F4FE1E18E12DDCF80E1F601A98922
:100A6000BA8901900D928A95E1F7F1E09F16F9F0AD
:100A700080E08ECF482C4E188E1421F3852D8E29C0
:100A800080680E941F04811182CFEC0CFD2CF11CA8
:100A90003701F30180810E948804811178CFFFEF34
:100AA0006F1A7F0A862D8E19841598F3CBCF9092FA
:100AB0008201DECFCF92DF92EF92FF920F931F93CE
:100AC000CF93DF9300D000D00F92CDB7DEB76C018B
:100AD000D9828A838E010F5F1F4F7E0183E0E80E6B
:100AE000F11CED82FC826D817C81F80180810E9485
:100AF0009D08811579F081E00F900F900F900F9075
:100B00000F90DF91CF911F910F91FF90EF90DF90A9
:100B1000CF9008950F5F1F4F0E151F0521F741E07D
:100B200064E081E00E94DC068111E5CF40E064E0F2
:100B300081E00E94DC068111DECFC092A301D09239
:100B4000A401DACF0E949408811117C041E064E04B
:100B500081E00E946006811110C040E064E081E005
:100B60000E94DC06811109C08FEF9FEF8093A301E3
:100B70009093A40101960C945A0581E008950E9477
:100B8000A205811107C01092A6011092A701109230
:100B9000A501089581E008950F931F93CF93DF93EC
:100BA0008F7340E050E09A01E901E1E0F0E0AE2F00
:100BB000022E01C0AA0F0A94EAF7A82379F1DF01F7
:100BC000042E02C0AA0FBB1F0A94E2F7CA2BDB2B2C
:100BD0002F5F3F4F4E5F5F4F2630310541F7611168
:100BE000D0618091A501811539F08091A601909185
:100BF000A7018C179D0761F0CE010E945A05811153
:100C000017C0C093A601D093A70181E08093A501EE
:100C100080E0DF91CF911F910F910895DA01A395A4
:100C20008F0102C0000F111FAA95E2F7D801CECFA5
:100C300081E0EFCFCF93C2E042E06C2F82E00E94D0
:100C4000600681110BC0CF5FC830B1F71092AA01C6
:100C50001092A9011092A801CF91089581E0FCCFD4
:100C6000CF93DF930F92CDB7DEB71982BE016F5FCE
:100C70007F4F82E00E944F0781111DC0998190959E
:100C8000969596952091A901291749F09093A9016D
:100C900091E09093A8010F90DF91CF9108959091EA
:100CA000A8019530C0F79F5F9093A801953099F700
:100CB0002093AA01F0CF81E0EECF8091AA010895A0
:100CC0006830A8F4823009F441C070F4811122C068
:100CD00081E001C0880F6A95EAF7413051F49AB378
:100CE000892B8ABB80E00895833009F44BC081E0F2
:100CF0000895282F2095423039F49AB392239ABB55
:100D00009BB3892B8BBBEECF8AB382238ABB8BB379
:100D10008223F8CF81E001C0880F6A95EAF741305D
:100D200021F497B3892B87BBDDCF282F2095423044
:100D300039F497B3922397BB98B3892B88BBD2CF52
:100D400087B3822387BB88B38223F8CF81E001C0B9
:100D5000880F6A95EAF7413021F494B3892B84BB5C
:100D6000C1CF282F2095423039F494B3922394BBFD
:100D700095B3892B85BBB6CF84B3822384BB85B35F
:100D80008223F8CF81E090E09C0101C0220F6A9598
:100D9000EAF7413021F481B3822B81BBA3CF922F9C
:100DA000909581B3892381BB82B3423019F4822BA1
:100DB00082BB98CF8923FCCF6830B0F4823061F1D8
:100DC00088F4811117C081E090E09C0101C0220FDE
:100DD0006A95EAF7622F8BB3413041F4822B8BBBCB
:100DE00080E00895833051F181E008956095682393
:100DF0006BBBF6CF81E090E09C0101C0220F6A95A9
:100E0000EAF7622F88B3413019F4822B88BBE8CF10
:100E10006095682368BBE4CF81E090E09C0101C04D
:100E2000220F6A95EAF7622F85B3413019F4822BBD
:100E300085BBD6CF6095682365BBD2CF81E090E0BB
:100E40009C0101C0220F6A95EAF7622F82B34130FC
:100E500019F4822B82BBC4CF6095682362BBC0CFDC
:100E6000FA013097A1F0683090F48230A1F068F474
:100E700081110FC089B390E002C0959587956A955E
:100E8000E2F78170808380E00895833031F081E063
:100E9000089586B3F0CF83B3EECF80B3ECCFFB01E0
:100EA000309759F0823069F030F4811108C089B36D
:100EB000808380E00895833031F081E0089586B327
:100EC000F7CF83B3F5CF80B3F3CF1F920F920FB656
:100ED0000F9211242F933F934F935F936F937F93C0
:100EE0008F939F93AF93BF93EF93FF93E091AB01E9
:100EF000F091AC01309709F00995FF91EF91BF9106
:100F0000AF919F918F917F916F915F914F913F91A1
:100F10002F910F900FBE0F901F9018951F920F9258
:100F20000FB60F9211242F933F934F935F936F93BC
:100F30007F938F939F93AF93BF93EF93FF93E09132
:100F4000AD01F091AE01309709F00995FF91EF9155
:100F5000BF91AF919F918F917F916F915F914F91D1
:100F60003F912F910F900FBE0F901F9018951F92D9
:100F70000F920FB60F9211242F933F934F935F93CD
:100F80006F937F938F939F93AF93BF93EF93FF9351
:100F9000E091AF01F091B001309709F00995FF9110
:100FA000EF91BF91AF919F918F917F916F915F91E1
:100FB0004F913F912F910F900FBE0F901F9018955A
:100FC00042E060E082E00C94600642E061E082E092
:100FD0000C94600641E061E082E00E94600640E01F
:100FE00061E082E00C94DC0641E060E082E00E9477
:100FF000600640E060E082E00C94DC06CF93DF9373
:1010000000D0CDB7DEB70E94E50785E38A95F1F7FA
:1010100000000E94E00785E38A95F1F7000019823D
:10102000AE014F5F5F4F61E082E00E94300789812F
:101030008A830E94F40785E38A95F1F700008A818C
:101040000F900F90DF91CF910895811599F00E9434
:10105000E50785E38A95F1F700000E94E00785E344
:101060008A95F1F700000E94F40785E38A95F1F76D
:10107000000008950E94EA07ECCF0E94E0070E945A
:10108000E50785E38A95F1F7000080E008950E9466
:10109000E5070E94E00785E38A95F1F700000E94CA
:1010A000EA0785E38A95F1F700000E94F40785E3DB
:1010B0008A95F1F7000080E008950E94EA0785E331
:1010C0008A95F1F700000E94E00785E38A95F1F721
:1010D00000000E94E50785E38A95F1F7000080EAA9
:1010E0008A95F1F780E008950F931F93CF93DF93D4
:1010F000C7E0D0E0082F10E0C8010C2E02C0959583
:1011000087950A94E2F781700E9425082197A0F73D
:101110000E94FE07982F81E0911101C080E0DF91CD
:10112000CF911F910F91089587B3806A87BBBE98B6
:1011300081E58DB9709880E008956115710541F0E1
:101140008FB9779BFECF8FB1FB01808380E008953C
:1011500081E008951F920F920FB60F9211242F93E2
:101160003F934F935F936F937F938F939F93AF932F
:10117000BF93EF93FF93E091B101F091B2013097EB
:1011800009F00995FF91EF91BF91AF919F918F91D8
:101190007F916F915F914F913F912F910F900FBE73
:1011A0000F901F90189540E450E06DEB71E083EBD9
:1011B00091E00E94B50081110AC01AB8599810BC7C
:1011C00093E399B996E890BD98E99AB9089581E0BA
:1011D00008955D9BFECF8CB980E00895CF93DF9397
:1011E000EC01892B29F481E006C021960E94E908D0
:1011F00088818111FACFDF91CF9108951F920F92CC
:101200000FB60F9211242F933F934F935F936F93D9
:101210007F938F939F93AF93BF93EF93FF936CB1A3
:1012200083EB91E00E94CC00FF91EF91BF91AF91D1
:101230009F918F917F916F915F914F913F912F91EE
:101240000F900FBE0F901F901895992778E0880F88
:10125000991F961708F0961B881F7A95C9F78095F5
:101260000895AA1BBB1B51E107C0AA1FBB1FA617ED
:10127000B70710F0A61BB70B881F991F5A95A9F73F
:1012800080959095BC01CD010895A1E21A2EAA1B6C
:10129000BB1BFD010DC0AA1FBB1FEE1FFF1FA21726
:1012A000B307E407F50720F0A21BB30BE40BF50B23
:1012B000661F771F881F991F1A9469F760957095AC
:1012C000809590959B01AC01BD01CF010895F894E4
:0212D000FFCF4E
:1012D20001060F214556542C424F4F540D0A004926
:1012E2004E3A2D2D2D20204F55543A2D2D2D003DB7
:1012F2003D3D205041524B494E47205449434B45B6
:1013020054203D3D3D0D0A004944202020203A2032
:10131200000D0A54494D4520203A20000D0A534C35
:101322004F5420203A207375676765737420000D4F
:101332000A4652454520203A20000D0A3D3D3D3DDA
:101342003D3D3D3D3D3D3D3D3D3D3D3D3D3D3D3DCB
:0A1352003D3D0D0A000001020300FA
:00000001FF
