:100000000C942A000C94ED150C9416160C943F16C3
:100010000C9447000C9447000C9447000C94470044
:100020000C9447000C9447000C9473170C944700F1
:100030000C9447000C94E8170C9447000C9447006C
:100040000C9447000C9447000C9447000C94470014
:100050000C94470011241FBECFE5D8E0DEBFCDBF12
:1000600014E0A0E6B0E0E2EEF0E302C005900D92ED
:10007000A833B107D9F725E0A8E3B4E001C01D9289
:10008000AB3EB207E1F70E94AE020C9466180C94E6
:1000900000000C94F10980916D04811519F081E044
:1000A00080936C0481E080936D040C947E040C9426
:1000B000730E85E694E00E94900B80E694E00C9429
:1000C000900BCF930E948C1183E00E94DA11C82F0D
:1000D000811571F080915F0481110AC00E94210C8A
:1000E0009C0181E02330310509F480E00E94330C4B
:1000F000C0935F0482E00E94DA11811531F08CE236
:1001000091E080935D0490935E04CF910C94331240
:100110001F93CF93DF930F92CDB7DEB711E0CE01DF
:1001200001960E94C917811529F00F90DF91CF9198
:100130001F91089599819D3011F09A30D1F48091EA
:100140003804811549F088E690E00E94D817109293
:10015000390410923804E3CFE0913904E115B9F382
:10016000F0E0E65CFB4F10828AE394E00E94A9096C
:10017000EECF80913904883148F4E82FF0E0E65C56
:10018000FB4F90838F5F80933904C9CF109338045D
:10019000C6CFCF93DF9300D0CDB7DEB789839A83E4
:1001A00083E790E00E94D81789819A810E94D8172E
:1001B00082E893E00F900F90DF91CF910C94D817C5
:1001C0000F931F93CF930E94E00B0E94210C8C0190
:1001D0000E941B0CC1E08111C0E081E003301105D9
:1001E00009F480E0C823809160008C1779F04C2FCF
:1001F00066E083E00E94641589E790E0C11102C0C7
:1002000082E890E00E94C900C093600080915B0486
:1002100090915C048017910789F00430110551F426
:1002200080E00E94571181E00E9457118DE890E014
:100230000E94C90000935B0410935C04CF911F914E
:100240000F910895CF92DF92EF92FF920F931F9339
:10025000CF93DF930E94210C9C0190915604233090
:10026000310559F59111C8C081E080935604109270
:1002700081041092820410928304109284041092DC
:1002800085041092770410927804109279041092E9
:100290007A0410927B0480E00E94571181E00E9452
:1002A000571187E990E0DF91CF911F910F91FF9057
:1002B000EF90DF90CF900C94C900911561F01092EF
:1002C000560480E00E945B1181E00E945B1180EA8D
:1002D00090E00E94C9006091680481E894E00E9467
:1002E0002A0B8091630461E0811107C080915D0455
:1002F00090915E04892B09F460E087E794E00E9406
:100300002A0B80915D0490915E04009729F001977B
:1003100080935D0490935E0481E894E00E948A0AD1
:1003200087E794E00E948A0A81E894E00E942D0BFE
:100330008C0187E794E00E942D0B6C018091590499
:1003400090915A048017910709F443C003301105B6
:1003500009F05BC08AEA90E00E94D8170E94621000
:10036000EC012197029710F4CFE0D7E2CE0168EEBE
:1003700073E00E942A18CB012AE0E22EF12CB7018B
:100380000E942A18805D0E94C417CE0164E670E0C6
:100390000E942A18CB01B7010E942A18805D0E9492
:1003A000C417CE01B7010E942A18C82FCB01B7018C
:1003B0000E942A18805D0E94C41780E38C0F0E945F
:1003C000C41782E893E00E94D81700935904109351
:1003D0005A0480915704909158048C159D0561F042
:1003E00088E0C816D10421F489ED90E00E94C9008C
:1003F000C0925704D0925804DF91CF911F910F9172
:10040000FF90EF90DF90CF9008958CEB90E0073055
:10041000110529F008301105C1F689EC90E00E9421
:10042000C900D3CFEF92FF920F931F93CF93DF9327
:1004300000D000D000D0CDB7DEB79C01892B79F475
:1004400080E30F900F900F900F900F900F90DF911F
:10045000CF911F910F91FF90EF900C94C41740E043
:10046000EAE0F0E07E018FEFE81AF80AC901BF0167
:100470000E942A18D701A40FB11D805D8C934F5F95
:10048000C9019B010A9790F78701040F111DE0161F
:10049000F10669F40F900F900F900F900F900F904E
:1004A000DF91CF911F910F91FF90EF900895F80188
:1004B00082918F010E94C417EACFCF93DF930E94ED
:1004C000350B0E945610D82F0E941E0CC82FD8172B
:1004D00009F43FC0809155048F3FD9F480915404B2
:1004E00081111CC08AEE90E00E94D8178D2F90E0F9
:1004F0000E9412028CE20E94C4178C2F90E00E948E
:10050000120282E893E00E94D81781E0809354049D
:1005100005C08F5F809355048F3100F780916A0486
:1005200090916B04892B91F08DEF90E00E94D81789
:1005300080916A0490916B040E94120282E893E019
:100540000E94D81710926A0410926B04DF91CF9129
:1005500008951092550410925404E0CFCDB7DEB741
:1005600063970FB6F894DEBF0FBECDBF24B72A8BBA
:1005700014BE84B7806884BF84B7806884BF66E097
:1005800081E00E94BE1489830E941C178A830E9406
:10059000AE178B830E945717182F8BE490E00E94B0
:1005A00069178B8B0E9468148C830E9437118D838E
:1005B0000E940D148E830E948F128F8387E00E9409
:1005C000E311888740E062E083E00E945F11898741
:1005D00040E063E083E00E945F118A8780E00E9430
:1005E00051118B8781E00E9451118C8780E00E941D
:1005F0005B1181E00E945B1141E066E083E00E94B4
:10060000E8148D8740E066E083E00E9464150E9454
:10061000D20B0E94F90E0E94310B8E870E9498091E
:100620008F870E94EF09888B41E060E081E894E0C9
:100630000E947C0A40E061E087E794E00E947C0A27
:1006400041E854E060E085E694E00E94810B898BEC
:1006500047E754E061E080E694E00E94810B81115D
:100660007DC08C814D81842B9E81892B2F81822B93
:100670004885842B9985892B2A85822B4B85842B51
:100680009C85892B2D85822B4E85842B9F85892BDC
:100690002889822B4989842B99812A81922B4B812D
:1006A000942B912B2B89922B892B11E0811101C066
:1006B00010E00E94560C811509F452C041E04983B4
:1006C0006DE071E080E00E94F9126EE171E081E07E
:1006D0000E94F9120E94E00B0E94F1090E94631728
:1006E00078948FE291E00E94D8174A89842F90E095
:1006F0000E94120282E893E00E94D81780E491E001
:100700000E94C90085E491E00E94C9008981811599
:1007100039F081E00E94430C81E591E00E94C9001C
:100720003FB7F89420916D0410926D0480916C0491
:10073000811571F010926C0480916A0490916B04A1
:100740008F3F980729F0019680936A0490936B0479
:100750003FBF211529F30E948F0CE2CF11E0A9CFF2
:1007600040E050E061E070E082E291E00E94700CB5
:10077000898340E050E061E070E081E690E00E9413
:10078000700C8A8341E050E065E070E080EE90E01C
:100790000E94700C8B8343E050E065E070E089E5D7
:1007A00090E00E94700C8C8344E050E062E070E0C6
:1007B00088E890E00E94700C8D8345E050E069E18C
:1007C00070E089E490E00E94700C8E8347E050E076
:1007D00064E670E08DE592E00E94700C8F834BE040
:1007E00050E064EF71E087E590E00E94700C8111A9
:1007F00065CF89819A81892B2B81822B4C81842B17
:100800009D81892B2E81822B4F81842B91E09983AE
:10081000811101C019822981212B298351CFFC012B
:10082000892B91F06115710579F04115510561F041
:1008300060837183428353831482158216821782E8
:100840001086118680E0089581E00895FC01892BCF
:1008500031F12FB7F89440855185828193814817F3
:100860005907D8F4A081B18184819581A80FB91F5F
:100870006C93848195810196848395834281538111
:100880008417950710F01482158280859185019652
:100890008087918780E02FBF089581E0FCCF81E0C1
:1008A0000895FC01892B41F16115710529F12FB7DC
:1008B000F89480859185892BE9F0A081B1818681AA
:1008C0009781A80FB91F8C91DB018C93868197814A
:1008D000019686839783428153818417950710F090
:1008E000168217828085918501978087918780E0A5
:1008F0002FBF089581E0FCCF81E0089580916E04C0
:100900008F5F843618F480936E04089510926E04FD
:1009100080916F0490917004A0917104B091720461
:100920000196A11DB11D80936F0490937004A09354
:100930007104B093720408952FB7F89460916F0416
:100940007091700480917104909172042FBF08958A
:10095000AF92BF92CF92DF92EF92FF92CF93DF934D
:10096000CDB7DEB72B970FB6F894DEBF0FBECDBF65
:1009700069837A838B839C834A875B87452B09F441
:100980006FC02A3008F46CC020E13EE040E050E047
:100990000E943E182D833E834F8358872CE3C22E3E
:1009A000D12CE12CF12CA70196010E943E18298739
:1009B00069817A818B819C81A70196010E943E18F2
:1009C000B62E69817A818B819C8120E43EE745E0E7
:1009D00050E00E943E186AE0C62EB901CA01A70184
:1009E00096010E943E18605DEA85FB8560836D81FB
:1009F0007E818F819885A70196010E943E18A62EC0
:100A0000B901CA01A70196010E943E18605DEA85FE
:100A1000FB85618380E38A0D82833AE33383898592
:100A20006AE00E941E18805D8483905D9583368302
:100A30008B2D0E941E18805D8783905D90871186A4
:100A400080E02B960FB6F894DEBF0FBECDBFDF91CE
:100A5000CF91FF90EF90DF90CF90BF90AF9008952F
:100A600081E0EFCFEF92FF920F931F93CF93DF932D
:100A700000D000D000D0CDB7DEB7FC018B017E01E5
:100A80008FEFE81AF80A3097E9F480E3898321E0D0
:100A9000822F90E0F701E20FF11DD801EE16FF065C
:100AA00011F5080F191FF80110820F900F900F9089
:100AB0000F900F900F90DF91CF911F910F91FF90AA
:100AC000EF90089520E0CF016AE070E00E942A18BC
:100AD000D701A20FB11D805D8C932F5FCF01FB0169
:100AE0000A9788F7D5CF22912D93D8CF4F925F9256
:100AF0006F927F928F929F92AF92BF92EF92FF92EE
:100B00000F931F93CF93DF93CDB7DEB7A9970FB69F
:100B1000F894DEBF0FBECDBFBE01605E7F4FCE0139
:100B200084960E9400108111F8C00E949C044B0121
:100B30005C0148A059A06AA07BA000E010E09801E9
:100B400084149504A604B70490F064197509860905
:100B500097092CE330E040E050E00E943E18890104
:100B60002F30310510F42FE030E02F503109C9014A
:100B7000CB966CE370E00E942A186EA37FA39B01C2
:100B8000AAE0B0E00E940F18693771058105910550
:100B900020F068E770E080E090E068A779A72091F6
:100BA000750430917604DC01CB01820F931FA11DE7
:100BB000B11D109711F08FEF9FEF80937504909304
:100BC0007604809173049091740401968093730469
:100BD00090937404ECA1FDA1CF0168EE73E00E9434
:100BE0002A18CB012AE030E0B9010E942A18805D62
:100BF0008B8FCF0164E670E00E942A18CB01B90107
:100C00000E942A18805D8C8FCF01B9010E942A189A
:100C1000482FCB01B9010E942A18805D8D8F405D5D
:100C20004E8F1F8E7E018BE0E80EF11CA701B201F2
:100C3000C3010E94A8047E2C6F2C81111B862AE020
:100C40007E018FEFE81AF80AA701B401C5010E94DE
:100C5000A8048111198280E691E00E94D81786E7E6
:100C600091E00E94D817CE014B960E94D8178FE7CB
:100C700091E00E94D817872D962D0E94D8178AE8F8
:100C800091E00E94D817C7010E94D817BE016B5E81
:100C90007F4FC8010E94320585E991E00E94D81774
:100CA000CE0145960E94D81780EA91E00E94D8179D
:100CB000BE016B5E7F4F8FE090E00E94320585EAB7
:100CC00091E00E94D817CE0145960E94D81780EA7D
:100CD00091E00E94D817BE016B5E7F4F8EA19FA14D
:100CE0000E94320580EB91E00E94D817CE01459614
:100CF0000E94D817BE016B5E7F4F88A599A50E9400
:100D000032058BEB91E00E94D817CE0145960E94E8
:100D1000D81786EC91E00E94D817A9960FB6F894E0
:100D2000DEBF0FBECDBFDF91CF911F910F91FF901E
:100D3000EF90BF90AF909F908F907F906F905F905B
:100D40004F90089580917504909176040895809154
:100D500073049091740408951092750410927604AF
:100D600010927304109274040895FC0140819C0158
:100D700001964F7DD1F7C9012F5F3F4FFC014081A4
:100D80004032C9F30895FC0120E080E090E05AE091
:100D9000308140ED430F4A3038F0211599F0FB01C6
:100DA0008083918380E008953196589FD001599FA8
:100DB000B00D1124CD01C097830F911D37FD9A9579
:100DC00021E0E6CF81E008950C946C10CF93DF937F
:100DD000CDB7DEB7C054D1090FB6F894DEBF0FBE51
:100DE000CDBFCE0101960E946D0E811104C0CE01CF
:100DF00001960E94D817C05CDF4F0FB6F894DEBF93
:100E00000FBECDBFDF91CF9108950E94D81782E821
:100E100093E00C94D8178EED91E00E94050782E0D4
:100E200092E00E9405078AE292E00E94050788E5A9
:100E300092E00C9405070E94AC060E94EF1085E733
:100E400092E00C940507CF93DF93CDB7DEB76097A0
:100E50000FB6F894DEBF0FBECDBF0E94AB1493E572
:100E600099832CE42A832FE42B8324E52C839D8310
:100E70009DE39E83FE01379625E030E061E0462F3A
:100E8000022E01C0440F0A94EAF7482399F091E337
:100E900091932150310998F71D86CE0101960E9449
:100EA000050760960FB6F894DEBF0FBECDBFDF9189
:100EB000CF91089590E3ECCFEF92FF920F931F93A1
:100EC000CF93DF9300D000D000D0CDB7DEB78C0138
:100ED000FB019A01452BB1F48081D801A80FB11D07
:100EE00080E38C9380818F5F80830F900F900F90B1
:100EF0000F900F900F90DF91CF911F910F91FF9066
:100F0000EF90089540E07E018FEFE81AF80AC901DA
:100F10006AE070E00E942A18D701A40FB11D805D1D
:100F20008C934F5FC9019B010A9788F74E0D5F2D87
:100F3000511DE416F506C9F28081800F912F911D95
:100F4000DA012E91AD01DC012C9380818F5F8083CB
:100F5000F0CF1F93CF93DF93CDB7DEB7A1970FB636
:100F6000F894DEBF0FBECDBF83E5898394E59A83F5
:100F700021E42B839C838D8386E089A38DE38E837C
:100F80000E946710AC01BE016F5D7F4FCE010196DC
:100F90000E945C0789A191E0980F99A3FE01319608
:100FA000E80FF11D1CE210830E94A706AC01BE01F0
:100FB0006F5D7F4FCE0101960E945C0789A191E091
:100FC000980F99A3FE013196E80FF11D10830E943E
:100FD000A206AC01BE016F5D7F4FCE0101960E945B
:100FE0005C0789A191E0980F99A3FE013196E80F63
:100FF000F11D10830E94530C482F50E0BE016F5D1D
:101000007F4FCE0101960E945C0789A1FE013196B7
:10101000E80FF11D1082CE0101960E940507A196EE
:101020000FB6F894DEBF0FBECDBFDF91CF911F91F9
:101030000895CF93DF93CDB7DEB72B970FB6F89413
:10104000DEBF0FBECDBF86E4898382E58A8385E457
:101050008B838C8385E08B878DE38D830E941B0CB3
:10106000482F50E0BE01655F7F4FCE0101960E9480
:101070005C078B85FE013196E80FF11D1082CE01D1
:1010800001960E9405072B960FB6F894DEBF0FBE9F
:10109000CDBFDF91CF9108956417750718F026171B
:1010A000370720F488E792E00C940507FC01608381
:1010B00085E792E0F9CFFC01DB019C9180819111E1
:1010C00006C08F7D91E0811113C0892F089581158D
:1010D00079F06F5F7F4F31962FE9280F2A3108F49E
:1010E00080522FE9290F2A3108F49052981721F3E2
:1010F00090E0EBCFCF93DF9300D0CDB7DEB78983FD
:101100009A836DE970E00E945B08811559F081E0D7
:101110000E94330C85E792E00F900F90DF91CF9102
:101120000C94050766EA70E089819A810E945B0849
:10113000811511F080E0ECCF82E892E0EDCFCF9303
:10114000DF9300D0CDB7DEB789839A830E94210C4C
:10115000039741F08AE892E00F900F90DF91CF91D2
:101160000C94050766ED70E089819A810E945B0806
:10117000811531F080E00E945B1185E792E0ECCFB1
:1011800066EE70E089819A810E945B08811511F0FA
:1011900081E0F1CF82E892E0DFCFCF93DF9300D000
:1011A000CDB7DEB789839A830E94210C039741F063
:1011B0008AE892E00F900F90DF91CF910C94050791
:1011C00066ED70E089819A810E945B08811531F09B
:1011D00080E00E94571185E792E0ECCF66EE70E068
:1011E00089819A810E945B08811511F081E0F1CF1D
:1011F00082E892E0DFCF0F931F93CF93DF9300D06D
:10120000CDB7DEB78C0163E972E00E945B088115FF
:1012100021F1C8010E94B506BE016F5F7F4F0E9499
:10122000C306811551F088E792E00F900F90DF918F
:10123000CF911F910F910C94050769817A8124E663
:1012400030E041E050E085E690E00F900F90DF91B4
:10125000CF911F910F910C944C086AE972E0C8017C
:101260000E945B08811599F0C8010E94B506BE0175
:101270006F5F7F4F0E94C3068111D5CF69817A814C
:101280002CE330E040E050E084E690E0DECF60EA1E
:1012900072E0C8010E945B08811599F0C8010E94A4
:1012A000B506BE016F5F7F4F0E94C3068111BBCFA1
:1012B00069817A812FE030E042E050E083E690E0FF
:1012C000C4CF65EA72E0C8010E945B08811599F0FD
:1012D000C8010E94B506BE016F5F7F4F0E94C30622
:1012E0008111A1CF69817A812CE330E04AE050E09E
:1012F00082E690E0AACF6DEA72E0C8010E945B0826
:10130000811599F0C8010E94B506BE016F5F7F4F3D
:101310000E94C306811187CF69817A8124E630E07B
:1013200040E050E081E690E090CF82E892E07DCF0F
:101330008AE0809365008FE08093640085E080936D
:10134000630084E1809362008EE18093610080E01D
:101350000895EF92FF920F931F93CF93DF938C0129
:1013600081E00115110529F1F80101900020E9F74C
:101370003197E01B83EB92E0E93158F539ECE32E2D
:1013800033E0F32EC0E0D0E0F70160817181C80145
:101390000E945B088115A1F0C8010E94B506CC0F20
:1013A000DD1FCC0FDD1FC753DC4FEA81FB810995A0
:1013B00080E0DF91CF911F910F91FF90EF90089502
:1013C0002196F4E0EF0EF11CCB30D105E9F682E86E
:1013D00092E00E940507ECCF80916100089580E0C3
:1013E00008950F931F93CF93DF93CDB7DEB7629726
:1013F0000FB6F894DEBF0FBECDBF0E94180C8A8BCB
:101400000E941B0C082F0E941E0C182F0E947E0B9E
:10141000682F8A890E941A14802F0E94F41086E493
:10142000898382E58A8385E48B838C838AE38D8339
:1014300090E3900F9E8390E29F8398872FE4298703
:1014400023E42A872B878C87105D1D879E879F87C3
:10145000988B198A8E010F5F1F4FB80180E00E94A0
:10146000F912E0918104B801A7EFB2E0E93038F455
:10147000F0E0EE0FFF1FEB50FC4FA081B181E09137
:101480007704E930B0F5F0E0EE0FFF1FEB50FC4FB2
:101490000190F081E02D89E489838EE48A838AE3D8
:1014A0008B839D919C839D919D839D919E839C9117
:1014B0009F8390E298879FE4998795E59A8794E5C2
:1014C0009B878C8780818D8781818E8782818F87A2
:1014D0008381888B198A81E00E94F91262960FB687
:1014E000F894DEBF0FBECDBFDF91CF911F910F915A
:1014F0000895E7EFF2E0CFCFFC01862F1082118232
:1015000012821382148265834683178210861186A5
:101510000C945B11CF93DF93EC01E881F981E93002
:10152000F10598F4E859F74E0C9460188C818115F8
:1015300031F084E18A831B8281E088831982DF9104
:10154000CF9108958C81811103C018821982F7CF41
:101550008A819B8101978A839B83892B81F782E013
:10156000ECCF8E818115B1F00E94260C811551F0CF
:101570000E94120F8D810E94571184E68A831B827C
:1015800083E0DBCF87E00E94F91188EC8A831B821D
:1015900087E0D3CF0E947605EDCF8A819B810197AA
:1015A0008A839B83892B59F687E00E94FF11CDCF58
:1015B0008A819B81019719F08A839B83C0CF84EF36
:1015C00091E08A839B8384E0B8CF8C81811531F0D0
:1015D00080ED97E08A839B8385E0AFCF8A819B81F2
:1015E00001978A839B83892B09F0A9CF8D810E9463
:1015F0005B1184E68A831B8286E09FCF8C818111F8
:1016000006C08F81988501968F839887EFCF8A8156
:101610009B8101978A839B83892B09F090CF81E07E
:1016200089878D810E945B1144E650E063E087E08A
:101630000E94051288E081CF8A819B8101978A836D
:101640009B83892B09F481CF7ACF8C81811177CF4D
:1016500019867BCFFC0164830895FC018081918110
:10166000089510928B0480E00895EF92FF921F93EB
:10167000CF93DF9300D0CDB7DEB7BE016F5F7F4F52
:1016800082E00E94D114182F811136C00E94EC090B
:10169000282FE980FA8080918B04811119C030E0F5
:1016A000AFEFB3E00E940F1824E640E050E00E9444
:1016B0003E18E216F30618F481E080938B04812F24
:1016C0000F900F90DF91CF911F91FF90EF900895B1
:1016D000265F253608F024E630E0AFEFB3E00E9445
:1016E0000F1824E640E050E00E943E18E216F30690
:1016F00030F310928B04E3CF11E0E1CF80918B04A3
:101700000895FC01892B51F04115510539F0608392
:10171000418352831382148280E0089581E008950A
:101720000F931F93CF93DF9300D00F92CDB7DEB707
:101730008C01009759F481E08B838B810F900F907F
:101740000F90DF91CF911F910F910895BE016F5FB0
:101750007F4FFC0180810E94D1148B838111EBCFDC
:10176000F801838129813A81811106C029353240EF
:10177000B8F4F8011482E1CF61E02039314008F477
:1017800060E08617B1F3F80184818F5F8483843031
:10179000A0F263831482818192810E942A0BCDCFB3
:1017A00061E0F1CF10928F041092900410928E0499
:1017B00086E08093660010928D0410928C04089548
:1017C0000E947E14811531F084E080938F04109282
:1017D000900408950E94AB1480938E04982F9695E0
:1017E0009575891B982F9373869586958373980FAB
:1017F000892F82958F70890F8F7080938D0496E06A
:10180000981B9093660090918C04981710F4809325
:101810008C0420918F0430919004235031092230A0
:101820003105B8F2863011F482E0CFCF81E0CDCF20
:1018300080918E04089580916600089580918D04B2
:10184000089580918F0490919004089580918F0461
:1018500090919004019729F481E090916600911194
:1018600001C080E0089581110CC080916600811153
:1018700006C082E080938F0410929004089581E066
:10188000F9CF83E0F7CF81110CC080916600811100
:1018900006C082E080938F0410929004089581E046
:1018A000F9CF84E0F7CF80918C040895E6E9F4E065
:1018B0001082118212821382148215821682379648
:1018C00084E0EA3EF807A1F7109295041092910483
:1018D00010929204109293041092940480E0089560
:1018E0009C01892BD1F061157105B9F09091950497
:1018F0009C3098F487E0989FF0011124EA56FB4F42
:1019000020833183628373834483558381E086839C
:101910009F5F9093950480E0089581E008951F9360
:10192000CF93DF938091910490919204A0919304BE
:10193000B09194040196A11DB11D809391049093E0
:101940009204A0939304B093940410E080919504C2
:10195000181720F0DF91CF911F91089587E0189F0D
:10196000E0011124CA56DB4F8E818115D9F02C81FC
:101970003D816091910470919204809193049091C3
:101980009404620F731F811D911D2A813B8140E0E9
:1019900050E00E943E18672B682B692B19F4E881F0
:1019A000F98109951F5FD2CFFC01E60FF11DDA0125
:1019B0008C91811511F06F3610F0862F08954F5FCE
:1019C0005F4F81936F5FF3CF4F925F926F927F92E1
:1019D000AF92BF92CF92DF92EF92FF920F931F933D
:1019E000CF93DF93CDB7DEB72A970FB6F894DEBF5B
:1019F0000FBECDBF7C01162F29013A0141145104BD
:101A000061047104F1F46F3630F4FC01E60FF11D4E
:101A100080E380831F5F812F2A960FB6F894DEBF84
:101A20000FBECDBFDF91CF911F910F91FF90EF902F
:101A3000DF90CF90BF90AF907F906F905F904F906E
:101A400008956E018FEFC81AD80A560100E0B2015E
:101A5000C3012AE030E040E050E00E943E18605DA3
:101A6000F50160830F5FFAE04F16510461047104C1
:101A700078F4D601A00FB11DF701E10FF11D1F365B
:101A800050F68E9181931F5FAC15BD05C1F7C3CF92
:101A90008FEFA81AB80A29013A010A30C1F6E9CF36
:101AA0006E3698F4DC01A60FB11DE42FE295EF70BD
:101AB000F0E0E95FFB4F80818D934F70E42FF0E001
:101AC000E95FFB4F80818C936E5F862F08951F9393
:101AD000CF93DF9300D00F92CDB7DEB78A839B837D
:101AE0004FE153E060E00E94D40C182F0E941B0CC1
:101AF000282F30E040E050E0612F8A819B810E94D6
:101B0000E40C46E253E0682F8A819B810E94D40C4A
:101B100089830E941E0C282F30E040E050E069814C
:101B20008A819B810E94E40C4AE253E0682F8A81FB
:101B30009B810E94D40C89830E94AB14482F698139
:101B40008A819B810E94500D40E353E0682F8A8177
:101B50009B810E94D40C898381E894E00E942D0B24
:101B60004EEC52E0893040F4E82FF0E0EE0FFF1F1A
:101B7000EE5DFB4F4081518169818A819B810E948A
:101B8000D40C45E353E0682F8A819B810E94D40CDA
:101B9000898387E794E00E942D0B4EEC52E0893058
:101BA00040F4E82FF0E0EE0FFF1FEE5DFB4F4081A9
:101BB000518169818A819B810E94D40C4BE353E05F
:101BC000682F8A819B810E94D40C89830E946710B0
:101BD0009C0140E050E069818A819B810E94E40C75
:101BE0004FE353E0682F8A819B810E94D40C898344
:101BF0000E94A7069C0140E050E069818A819B8198
:101C00000E94E40C43E453E0682F8A819B810E9488
:101C1000D40C89830E94A2069C0140E050E06981B7
:101C20008A819B810E94E40C49E453E0682F8A81F9
:101C30009B810E94D40C89830E94210C4EEC52E0BF
:101C4000853040F4E82FF0E0EE0FFF1FE85EFB4F19
:101C50004081518169818A819B810E94D40C40E539
:101C600053E0682F8A819B810E94D40C89830E9453
:101C70009C049B01AC0169818A819B810E94E40CD8
:101C80008983682F611B70E08A819B81810F911D80
:101C90000E94AE14182F45E553E069818A819B812B
:101CA0000E94D40C412F682F8A819B810E94500D85
:101CB00042E853E0682F8A819B810E94D40C2A81DC
:101CC0003B81280F311DF901108280E00F900F90A9
:101CD0000F90DF91CF911F910895009711F00C9410
:101CE000670D81E00895CF93DF93CDB7DEB7C0577E
:101CF000D1090FB6F894DEBF0FBECDBFCE0101965D
:101D00000E94670DCE0101960E94D817C059DF4F7F
:101D10000FB6F894DEBF0FBECDBFDF91CF9108950F
:101D20007F928F929F92AF92BF92CF92DF92EF926B
:101D3000FF920F931F93CF93DF93CDB7DEB72A9710
:101D40000FB6F894DEBF0FBECDBF5C018B016901F9
:101D50007A01C114D104E104F104F1F4DB018C91A6
:101D6000F501E80FF11D80E380838C918F5F8C93E8
:101D70002A960FB6F894DEBF0FBECDBFDF91CF918C
:101D80001F910F91FF90EF90DF90CF90BF90AF9099
:101D90009F908F907F900895712C4E01BFEF8B1A0A
:101DA0009B0AB601C7012AE030E040E050E00E9403
:101DB0003E18F401E70DF11D605D60837394C60168
:101DC000D70169017A010A97A105B10550F7F4011D
:101DD000E70DF11D8E169F0659F2D8018C91D501A1
:101DE000A80FB11D82918C93D8018C918F5F8C9339
:101DF000F1CFEEEEF4E0108211821282138214828F
:101E0000158216821782389685E0EE31F80799F729
:101E100081E08093EC041092ED041092EA04109299
:101E2000EB040895EF92FF920F931F93CF93DF93EC
:101E3000CDB7DEB761970FB6F894DEBF0FBECDBF4A
:101E4000EEEEF4E000E0F780F11409F4B6C00F5FA5
:101E500038960630C1F761960FB6F894DEBF0FBE14
:101E6000CDBFDF91CF911F910F91FF90EF9008951B
:101E70002F5F3F4F2630310559F0462F022E01C00B
:101E8000440F0A94EAF7482399F7FF24F394F20EDB
:101E9000F801E251FB4FF68281E087838091EC04E8
:101EA0009091ED048F3027E2920708F083C00196ED
:101EB0008093EC049093ED048091EA049091EB04FC
:101EC00001968093EA049093EB040E941B0C888B8C
:101ED000C80182519B4F7C01DC01ED91FD91CF0146
:101EE00068EE73E00E942A18CB012AE030E0B901C5
:101EF0000E942A18805D8B87CF0164E670E00E9403
:101F00002A18CB01B9010E942A18805D8C87CF0165
:101F1000B9010E942A18482FCB01B9010E942A1842
:101F2000805D8D87405D4E871F86F70162817381DA
:101F3000848195817E01FFEFEF1AFF0AA7010E94BD
:101F4000A804811561F08DE289838A838B839AE3EB
:101F50009C838D838E839F83888789871A868CE6EE
:101F600093E00E94D81786E791E00E94D817CE012F
:101F70000B960E94D81785E893E00E94D817C701F6
:101F80000E94D81780E993E00E94D817F801E25127
:101F9000FB4F8681805D0E94C41783EA93E00E9414
:101FA000D8178889805D0E94C4178EEA93E00E944A
:101FB000D81751CF81E090E07BCF28E0029F8001CD
:101FC0001124C80182519B4F888B998B8091EC041E
:101FD0009091ED04A889B9898D939D930E949C04EA
:101FE000E889F98962837383848395830E94AB14A3
:101FF000282F217080FF49CF21E030E0B9013ACF8E
:102000008F929F92AF92BF92CF92DF92EF92FF9208
:10201000CF93DF939C01892B09F446C061157105AC
:1020200009F442C0AEEEB4E08FEFF82EEF2C67015A
:10203000E6E090E017968C911797811571F0129653
:102040008D909D90AD90BD9016978C149D04AE041C
:10205000BF0418F464017501E92F9F5F189696304C
:1020600049F7E63008F588E0E89FF0011124E251D5
:10207000FB4F80819181D9018D939D9382819381C2
:10208000A481B581EB0188839983AA83BB831782DE
:1020900080E0DF91CF91FF90EF90DF90CF90BF90E5
:1020A000AF909F908F90089581E0F3CFEEEEF4E033
:1020B00080E0978191118F5F389695E0EE31F907B6
:1020C000C1F708958091EC049091ED0408958091FA
:1020D000EA049091EB040895EF92FF920F931F93FF
:1020E000CF93DF93CDB7DEB769970FB6F894DEBF15
:1020F0000FBECDBF0EEE14E094E5E92E9CE2F92E62
:10210000F8018781811509F456C0E982FBE4FA835E
:10211000EB8284E0898FFC82F8012081318140E0EC
:1021200050E0BE01675E7F4FCE0101960E94900E87
:10213000898D91E0980F998FFE013196E80FF11D7E
:10214000F082F8012281338144815581BE01675EAE
:102150007F4FCE0101960E94900E898D91E0980FDD
:10216000998FFE013196E80FF11DF082F80126816A
:1021700030E040E050E0BE01675E7F4FCE01019647
:102180000E94900E898DFE013196E80FF11D9DE0B1
:10219000908391E0980FFE013196E90FF11D9AE0CE
:1021A00090838E5FFE013196E80FF11D1082CE0103
:1021B00001960E94D817085F1F4FE5E00E311E07F9
:1021C00009F09ECF69960FB6F894DEBF0FBECDBF63
:1021D000DF91CF911F910F91FF90EF900895109292
:1021E000EA041092EB040895EF92FF920F931F936D
:1021F000CF93C82F873008F0CFE080911E0581155E
:1022000059F0809167008C1307C080E0CF911F9137
:102210000F91FF90EF90089584E3E82E84E0F82E6C
:1022200000E010E081E0002E01C0880F0A94EAF778
:102230008C2341E0811101C040E0F701608181E021
:102240000E94641581110EC0FFEFEF1AFF0A0F5FA5
:102250001F4F0430110531F7C093670081E0809370
:102260001E05D3CF81E0D2CF8FE00C94F410CF9332
:10227000DF93C4E3D4E041E0688181E00E94E81488
:1022800081110BC0219684E0C833D807A1F71092C2
:102290001E05DF91CF910C94341181E0DF91CF9135
:1022A0000895982F81E0923008F480E0089560ED61
:1022B00077E00C942F176CED75E00C942F17CF93EB
:1022C000DF9300D00F92CDB7DEB789836B834A834B
:1022D000683038F081E00F900F900F90DF91CF9130
:1022E000089542E06B8189810E94E8148111F2CF48
:1022F0009B8129E0929FF0011124E15EFA4F298130
:10230000238390839A819183148215821682178287
:10231000108691E09283DFCF0F931F93CF93DF93CB
:102320000F92CDB7DEB70FE115E0F801828181157C
:10233000B9F0AE014F5F5F4F608183810E94B81595
:1023400081E090E0F80131812981321380E0F801C9
:10235000248135812817390781F0848315821086FE
:10236000075F1F4FF5E007361F07F9F680E00F9073
:10237000DF91CF911F910F9108952085253020F096
:10238000F80186831782ECCF2F5F2087253041F735
:10239000F7CF883060F499E0899FF0011124E15E65
:1023A000FA4F8281811519F086819781089580E026
:1023B00090E008950E94C9119C0181E0213031050F
:1023C00009F080E00895CF93C82F873019F081E09D
:1023D000CF9108950E949C178111F9CFC0936F058A
:1023E00010926E0510926D0510926C0510926B059F
:1023F000EFCF873011F40C94A51781E00895873052
:1024000011F40C94A91781E00895362F90916E0570
:10241000913029F1611529F14115510511F12091F2
:102420006F0528131EC0CA016AE070E00E942A18D6
:10243000892BB9F481E080936E0580936D0510922D
:102440006C0530936B051092690510926A056093D4
:10245000670570936805822F0E94F91190E0892F1B
:10246000089591E0FCCF80916E05811519F180915E
:10247000690590916A0501968093690590936A05B4
:1024800020916705309168058217930798F01092A4
:10249000690510926A0580916D05813069F480911B
:1024A0006F050E94FF1110926D0580916C058F5F82
:1024B00080936C0580E0089590916C0580916B0588
:1024C000981718F010926E05F5CF80916F050E9455
:1024D000F91181E080936D05EDCFCF93DF930F92DB
:1024E000CDB7DEB789830E94CF16811113C08CE768
:1024F0000E94FC1681110EC00E94FC1681110AC0B8
:1025000089810E94FC16811105C00F90DF91CF9147
:102510000C94E51681E00F90DF91CF9108950E9411
:10252000C516811511F081E008952FE788E391E049
:10253000215080409040E1F700C0000088E30E94F5
:102540006D128111F0CF8FE097E20197F1F700C093
:10255000000088E30E946D128111E5CF8FEC97E0B7
:102560000197F1F700C0000088E30E946D1281110D
:10257000DACF88E00E946D128111D5CF81E00E94F0
:102580006D128111D0CF8FE99FE00197F1F700C064
:10259000000086E00E946D128111C5CF8CE00E9480
:1025A0006D128111C0CF109270050895CF93DF9303
:1025B0000F92CDB7DEB789830E94CF16811114C068
:1025C0008CE70E94FC1681110FC080E40E94FC166B
:1025D00081110AC089810E94FC16811105C00F90EB
:1025E000DF91CF910C94E51681E00F90DF91CF91B0
:1025F00008954F925F926F927F928F929F92AF92C7
:10260000BF92CF92DF92EF92FF920F931F93CF93DF
:10261000DF93CDB7DEB762970FB6F894DEBF0FBE7B
:10262000CDBF982E82E09816C0F081E062960FB67A
:10263000F894DEBF0FBECDBFDF91CF911F910F91F8
:10264000FF90EF90DF90CF90BF90AF909F908F90D2
:102650007F906F905F904F9008956115710529F3F9
:102660005E01EFEFAE1ABE0AFB019B01205F3F4FF8
:10267000D50190E0650191112EC08081811551F145
:102680008D933196E217F307B1F7092D10E01195FC
:1026900001951109007110E00F581A4F90E1E92ED1
:1026A000812C098B1A8B552490FA56F891FA57F819
:1026B000F0E18F1691F080917005811531F0F501F0
:1026C0009081F8018081981741F0F0E1EF120AC083
:1026D000E82C08C091E080E2D3CF80E1E81218C076
:1026E00080E1E82E83948FEFA81AB80A0F5F1F4F7E
:1026F000E1E18E12DDCF80E1F601A989BA8901906E
:102700000D928A95E1F7F1E09F16F9F080E08ECF07
:10271000482C4E188E1421F3852D8E2980680E9436
:102720006D12811182CFEC0CFD2CF11C3701F301ED
:1027300080810E94D612811178CFFFEF6F1A7F0A35
:10274000862D8E19841598F3CBCF90927005DECF2D
:10275000CF92DF92EF92FF920F931F93CF93DF936D
:1027600000D000D00F92CDB7DEB76C01D9828A833A
:102770008E010F5F1F4F7E0183E0E80EF11CED829A
:10278000FC826D817C81F80180810E944A1781154D
:1027900079F081E00F900F900F900F900F90DF91E4
:1027A000CF911F910F91FF90EF90DF90CF90089500
:1027B0000F5F1F4F0E151F0521F741E064E081E018
:1027C0000E9464158111E5CF40E064E081E00E9441
:1027D00064158111DECFC0929105D0929205DACFB7
:1027E0000E944117811117C041E064E081E00E941E
:1027F000E814811110C040E064E081E00E9464159B
:10280000811109C08FEF9FEF8093910590939205FE
:1028100001960C94A81381E008950E94F013811191
:1028200007C0109294051092950510929305089593
:1028300081E008950F931F93CF93DF938F7340E050
:1028400050E09A01E901E1E0F0E0AE2F022E01C074
:10285000AA0F0A94EAF7A82379F1DF01042E02C037
:10286000AA0FBB1F0A94E2F7CA2BDB2B2F5F3F4F47
:102870004E5F5F4F2630310541F76111D061809185
:102880009305811539F080919405909195058C17E9
:102890009D0761F0CE010E94A813811117C0C0935B
:1028A0009405D093950581E08093930580E0DF91B6
:1028B000CF911F910F910895DA01A3958F0102C066
:1028C000000F111FAA95E2F7D801CECF81E0EFCF1C
:1028D000CF93C2E042E06C2F82E00E94E8148111A5
:1028E0000BC0CF5FC830B1F71092980510929705D2
:1028F00010929605CF91089581E0FCCFCF93DF939E
:102900000F92CDB7DEB71982BE016F5F7F4F82E0B5
:102910000E94D71581111DC0998190959695969525
:1029200020919705291749F09093970591E090938E
:1029300096050F90DF91CF9108959091960595306F
:10294000C0F79F5F90939605953099F7209398056F
:10295000F0CF81E0EECF809198050895680F791F40
:1029600020E0009731F420E007C0FC018191282786
:10297000CF0186179707C9F7822F0895823010F08C
:10298000833069F49FEF960F973048F48295880F53
:10299000880F807C87B9606866B980E0089581E01F
:1029A0000895883098F46115710581F097B1907E93
:1029B000982B97B9349A369A349BFECF349A84B1C7
:1029C00025B1FB018083218380E0089581E0089593
:1029D0006830A8F4823009F441C070F4811122C03B
:1029E00081E001C0880F6A95EAF7413051F49AB34B
:1029F000892B8ABB80E00895833009F44BC081E0C5
:102A00000895282F2095423039F49AB392239ABB27
:102A10009BB3892B8BBBEECF8AB382238ABB8BB34C
:102A20008223F8CF81E001C0880F6A95EAF7413030
:102A300021F497B3892B87BBDDCF282F2095423017
:102A400039F497B3922397BB98B3892B88BBD2CF25
:102A500087B3822387BB88B38223F8CF81E001C08C
:102A6000880F6A95EAF7413021F494B3892B84BB2F
:102A7000C1CF282F2095423039F494B3922394BBD0
:102A800095B3892B85BBB6CF84B3822384BB85B332
:102A90008223F8CF81E090E09C0101C0220F6A956B
:102AA000EAF7413021F481B3822B81BBA3CF922F6F
:102AB000909581B3892381BB82B3423019F4822B74
:102AC00082BB98CF8923FCCF6830B0F4823061F1AB
:102AD00088F4811117C081E090E09C0101C0220FB1
:102AE0006A95EAF7622F8BB3413041F4822B8BBB9E
:102AF00080E00895833051F181E008956095682366
:102B00006BBBF6CF81E090E09C0101C0220F6A957B
:102B1000EAF7622F88B3413019F4822B88BBE8CFE3
:102B20006095682368BBE4CF81E090E09C0101C020
:102B3000220F6A95EAF7622F85B3413019F4822B90
:102B400085BBD6CF6095682365BBD2CF81E090E08E
:102B50009C0101C0220F6A95EAF7622F82B34130CF
:102B600019F4822B82BBC4CF6095682362BBC0CFAF
:102B7000FA013097A1F0683090F48230A1F068F447
:102B800081110FC089B390E002C0959587956A9531
:102B9000E2F78170808380E00895833031F081E036
:102BA000089586B3F0CF83B3EECF80B3ECCFFB01B3
:102BB000309759F0823069F030F4811108C089B340
:102BC000808380E00895833031F081E0089586B3FA
:102BD000F7CF83B3F5CF80B3F3CF1F920F920FB629
:102BE0000F9211242F933F934F935F936F937F9393
:102BF0008F939F93AF93BF93EF93FF93E0919905CA
:102C0000F0919A05309709F00995FF91EF91BF91E6
:102C1000AF919F918F917F916F915F914F913F9174
:102C20002F910F900FBE0F901F9018951F920F922B
:102C30000FB60F9211242F933F934F935F936F938F
:102C40007F938F939F93AF93BF93EF93FF93E09105
:102C50009B05F0919C05309709F00995FF91EF9144
:102C6000BF91AF919F918F917F916F915F914F91A4
:102C70003F912F910F900FBE0F901F9018951F92AC
:102C80000F920FB60F9211242F933F934F935F93A0
:102C90006F937F938F939F93AF93BF93EF93FF9324
:102CA000E0919D05F0919E05309709F00995FF91FF
:102CB000EF91BF91AF919F918F917F916F915F91B4
:102CC0004F913F912F910F900FBE0F901F9018952D
:102CD00042E060E082E00C94E81442E061E082E0CF
:102CE0000C94E81441E061E082E00E94E81440E0C6
:102CF00061E082E00C94641541E060E082E00E94B3
:102D0000E81440E060E082E00C946415CF93DF9318
:102D100000D0CDB7DEB70E946D1685E38A95F1F736
:102D200000000E94681685E38A95F1F70000198279
:102D3000AE014F5F5F4F61E082E00E94B81589816C
:102D40008A830E947C1685E38A95F1F700008A81C8
:102D50000F900F90DF91CF910895811599F00E9407
:102D60006D1685E38A95F1F700000E94681685E3E9
:102D70008A95F1F700000E947C1685E38A95F1F7A9
:102D8000000008950E947216ECCF0E9468160E94FF
:102D90006D1685E38A95F1F7000080E008950E94A2
:102DA0006D160E94681685E38A95F1F700000E946F
:102DB000721685E38A95F1F700000E947C1685E380
:102DC0008A95F1F7000080E008950E94721685E36D
:102DD0008A95F1F700000E94681685E38A95F1F75D
:102DE00000000E946D1685E38A95F1F7000080EAE5
:102DF0008A95F1F780E008950F931F93CF93DF93A7
:102E0000C7E0D0E0082F10E0C8010C2E02C0959555
:102E100087950A94E2F781700E94AD162197A0F77A
:102E20000E948616982F81E0911101C080E0DF9109
:102E3000CF911F910F91089581B3806381BB82EA86
:102E40008FBD8AE18EBD8EE487BD8FE186BD95E0A2
:102E50009BBD8CED8ABD99BD88BD80E008959B0126
:102E60002C5D3540253F314050F4813020F47BBD4E
:102E70006ABD80E0089519F479BD68BDFACF81E09C
:102E8000089587B3806A87BBBE9881E58DB9709835
:102E900080E008956115710541F08FB9779BFECFF1
:102EA0008FB1FB01808380E0089581E0089588E080
:102EB00083BF12BE8DE48CBF89B7826089BF82E078
:102EC00088BF80E0089583B7887F856083BF80E0F6
:102ED0000895009731F080939F059093A00580E0BE
:102EE000089581E008951F920F920FB60F9211245A
:102EF0002F933F934F935F936F937F938F939F9302
:102F0000AF93BF93EF93FF93E0919F05F091A005DE
:102F1000309709F00995FF91EF91BF91AF919F9183
:102F20008F917F916F915F914F913F912F910F9072
:102F30000FBE0F901F9018958F9A8FE183BD14BC20
:102F400088E085BD979880E008958CE185BD80E09C
:102F5000089588E085BD979880E0089540E450E0AA
:102F60006BEA75E081EA95E00E940F0481110AC0C6
:102F70001AB8599810BC93E399B996E890BD98E9AE
:102F80009AB9089581E008955D9BFECF8CB980E0E9
:102F90000895CF93009751F0CFB7F894BC0181EA20
:102FA00095E00E945104CFBFCF91089581E0FCCFFE
:102FB000CF93DF93EC01892B29F481E006C02196A1
:102FC0000E94C41788818111FACFDF91CF910895B3
:102FD0001F920F920FB60F9211242F933F934F938E
:102FE0005F936F937F938F939F93AF93BF93EF9371
:102FF000FF936CB181EA95E00E942604FF91EF9166
:10300000BF91AF919F918F917F916F915F914F9100
:103010003F912F910F900FBE0F901F901895A29F78
:10302000B001B39FC001A39F700D811D1124911D9C
:10303000B29F700D811D1124911D0895992778E08C
:10304000880F991F961708F0961B881F7A95C9F765
:1030500080950895AA1BBB1B51E107C0AA1FBB1F87
:10306000A617B70710F0A61BB70B881F991F5A9514
:10307000A9F780959095BC01CD010895A1E21A2E83
:10308000AA1BBB1BFD010DC0AA1FBB1FEE1FFF1F0C
:10309000A217B307E407F50720F0A21BB30BE40B5C
:1030A000F50B661F771F881F991F1A9469F76095A3
:1030B0007095809590959B01AC01BD01CF0108955D
:1030C000EE0FFF1F0590F491E02D0994F894FFCFC7
:1030D000960AA20AB10AD80AE50AFE0A1C0BCD0A12
:0230E000250BBE
:1030E200FF1E14050F0A060F455252204C4F4E4741
:1030F2000D0A00214556542C004C4F542C46554C79
:103102004C004C4F542C564143414E54004C4F54AA
:103112002C4641554C54004D41494E542C4F4E00C3
:103122004D41494E542C4F464600214556542C459C
:103132004E5452592C4752414E542C00454E545233
:10314200592C52454A454354004C414E452C544952
:103152004D454F55542C494E004C414E452C544937
:103162004D454F55542C4F555400214556542C4C27
:103172004F542C4D49534D415443482C0021455640
:10318200542C53434845442C4F56522C00534D4126
:103192005254205041524B494E4720202000424F6A
:1031A2004F54494E472E2E2E202020202020002131
:1031B2004556542C424F4F542C43415553453D00E4
:1031C200424F4F54004346472C44454641554C54C8
:1031D200004C4F542C4641554C542C494E495400F6
:1031E2003D3D3D3D3D2052454345495054203D3DE6
:1031F2003D3D3D0D0A004944202020203A20000D8B
:103202000A494E202020203A20000D0A4F55542012
:1032120020203A20000D0A4457454C4C203A200009
:10322200206D696E000D0A4752414345203A200045
:103232000D0A484F555253203A20000D0A46454583
:103242002020203A20000D0A3D3D3D3D3D3D3D3DC3
:103252003D3D3D3D3D3D3D3D3D3D3D0D0A0053540F
:103262004154555320534C4F54533F2046524545E9
:103272003F205449434B4554533F205354415453E8
:103282003F00534554205441524946462F4752412C
:1032920043452F484F4C442F54494D454F55542FC9
:1032A2004C49474854203C6E3E004F50454E204901
:1032B2004E2F4F55542020434C4F534520494E2FFB
:1032C2004F55542020286D61696E74656E616E637E
:1032D20065206F6E6C7929004D41494E54204F4E46
:1032E2002F4F46462020434C5253544154532020E2
:1032F20048454C50004F4B004552522052414E47D8
:10330200450045525220434D4400455252204D4FF4
:103312004445005441524946460047524143450004
:10332200484F4C440054494D454F5554004C494771
:10333200485400455252204C4F4E4700535441547A
:10334200555300534C4F54533F00465245453F009E
:103352005449434B4554533F00534554004F504545
:103362004E00434C4F5345004D41494E5400434C8F
:10337200525354415453003F2020200049444C45AD
:10338200005741495400415554480050415353009D
:10339200434C4F530052454A200054494D450024A6
:1033A200504B2C463D002C4F3D002C4D41503D00D2
:1033B2002C494E3D002C4F55543D002C543D002CC1
:1033C200583D002C5245563D002C4D4F44453D0082
:1033D2002C55503D002A004F504552004F50454E4B
:1033E200494E4700434C4F53494E47003D3D3D2017
:1033F2005041524B494E47205449434B4554203D7E
:103402003D3D0D0A000D0A54494D4520203A200049
:103412000D0A534C4F5420203A2073756767657329
:103422007420000D0A4652454520203A20000D0A1C
:103432003D3D3D3D3D3D3D3D3D3D3D3D3D3D3D3DBA
:103442003D3D3D3D3D3D0D0A00BC02E606C3022363
:1034520007CA021908D002E406FB01A907D902FB38
:1034620008DD02CD08E2029F08E8027A08EE021B9C
:103472000770020B07FC0201030603DD02DD020BEB
:1034820003100315031A033031323334353637381B
:1034920039414243444546005B0157037D00E8023F
:1034A2009100FC02010306035C03DD020B036403CB
:0834B200C200A50200010203A3
:00000001FF
