:100000000C942A000C94AD150C94D6150C94FF1585
:100010000C9447000C9447000C9447000C94470044
:100020000C9447000C9447000C9433170C94470031
:100030000C9447000C94A8170C9447000C944700AC
:100040000C9447000C9447000C9447000C94470014
:100050000C94470011241FBECFE5D8E0DEBFCDBF12
:1000600014E0A0E6B0E0E2E6F0E302C005900D92F5
:10007000A232B107D9F725E0A2E2B4E001C01D9297
:10008000A53DB207E1F70E94AE020C9426180C942D
:1000900000000C94F10980915704811519F081E05A
:1000A0008093560481E0809357040C947E040C9452
:1000B000330E8FE494E00E94500B8AE494E00C9499
:1000C000500BCF930E944C1183E00E949A11C82FCD
:1000D000811571F08091490481110AC00E94E10BE1
:1000E0009C0181E02330310509F480E00E94F30B8C
:1000F000C093490482E00E949A11811531F08CE28C
:1001000091E08093470490934804CF910C94F311AD
:100110001F93CF93DF930F92CDB7DEB711E0CE01DF
:1001200001960E948917811529F00F90DF91CF91D8
:100130001F91089599819D3011F09A30D1F48091EA
:100140002204811549F088E690E00E9498171092E9
:10015000230410922204E3CFE0912304E115B9F3C4
:10016000F0E0EC5DFB4F108284E294E00E94A9096C
:10017000EECF80912304883148F4E82FF0E0EC5D65
:10018000FB4F90838F5F80932304C9CF1093220489
:10019000C6CFCF93DF9300D0CDB7DEB789839A83E4
:1001A00083E790E00E94981789819A810E949817AE
:1001B0008EE793E00F900F90DF91CF910C949817FA
:1001C0000F931F93CF930E94A00B0E94E10B8C0111
:1001D0000E94DB0BC1E08111C0E081E0033011051A
:1001E00009F480E0C823809160008C1779F04C2FCF
:1001F00066E083E00E94241589E790E0C11102C007
:1002000082E890E00E94C900C0936000809145049C
:10021000909146048017910789F00430110551F43C
:1002200080E00E94171181E00E9417118DE890E094
:100230000E94C9000093450410934604CF911F917A
:100240000F910895CF92DF92EF92FF920F931F9339
:10025000CF93DF930E94E10B9C01909140042330E7
:10026000310559F59111C8C081E080934004109286
:100270006B0410926C0410926D0410926E04109234
:100280006F04109261041092620410926304109241
:1002900064041092650480E00E94171181E00E94BE
:1002A000171187E990E0DF91CF911F910F91FF9097
:1002B000EF90DF90CF900C94C900911561F01092EF
:1002C000400480E00E941B1181E00E941B1180EA23
:1002D00090E00E94C900609152048BE694E00E9475
:1002E000EA0A80914D0461E0811107C080914704C2
:1002F00090914804892B09F460E081E694E00E9423
:10030000EA0A8091470490914804009729F00197E8
:1003100080934704909348048BE694E00E944A0A35
:1003200081E694E00E944A0A8BE694E00E94ED0A7E
:100330008C0181E694E00E94ED0A6C0180914304F7
:10034000909144048017910709F443C003301105CC
:1003500009F05BC08AEA90E00E9498170E94221080
:10036000EC012197029710F4CFE0D7E2CE0168EEBE
:1003700073E00E94EA17CB012AE0E22EF12CB701CC
:100380000E94EA17805D0E948417CE0164E670E047
:100390000E94EA17CB01B7010E94EA17805D0E9414
:1003A0008417CE01B7010E94EA17C82FCB01B7010D
:1003B0000E94EA17805D0E94841780E38C0F0E94E0
:1003C00084178EE793E00E949817009343041093DC
:1003D000440480914104909142048C159D0561F084
:1003E00088E0C816D10421F489ED90E00E94C9008C
:1003F000C0924104D0924204DF91CF911F910F919E
:10040000FF90EF90DF90CF9008958CEB90E0073055
:10041000110529F008301105C1F689EC90E00E9421
:10042000C900D3CFEF92FF920F931F93CF93DF9327
:1004300000D000D000D0CDB7DEB79C01892B79F475
:1004400080E30F900F900F900F900F900F90DF911F
:10045000CF911F910F91FF90EF900C94841740E083
:10046000EAE0F0E07E018FEFE81AF80AC901BF0167
:100470000E94EA17D701A40FB11D805D8C934F5FD6
:10048000C9019B010A9790F78701040F111DE0161F
:10049000F10669F40F900F900F900F900F900F904E
:1004A000DF91CF911F910F91FF90EF900895F80188
:1004B00082918F010E948417EACFCF93DF930E942D
:1004C000F50A0E941610D82F0E94DE0BC82FD817ED
:1004D00009F43FC080913F048F3FD9F480913E04DE
:1004E00081111CC08AEE90E00E9498178D2F90E039
:1004F0000E9412028CE20E9484178C2F90E00E94CE
:1005000012028EE793E00E94981781E080933E04E8
:1005100005C08F5F80933F048F3100F780915404B2
:1005200090915504892B91F08DEF90E00E949817DF
:1005300080915404909155040E9412028EE793E03A
:100540000E9498171092540410925504DF91CF9195
:10055000089510923F0410923E04E0CFCDB7DEB76D
:1005600063970FB6F894DEBF0FBECDBF24B72A8BBA
:1005700014BE84B7806884BF84B7806884BF66E097
:1005800081E00E947E1489830E94DC168A830E9487
:100590006E178B830E941717182F8BE490E00E9430
:1005A00029178B8B0E9428148C830E94F7108D834F
:1005B0000E94CD138E830E944F128F8387E00E948A
:1005C000A311888740E062E083E00E941F118987C1
:1005D00040E063E083E00E941F118A8780E00E9470
:1005E00011118B8781E00E9411118C8780E00E949D
:1005F0001B1181E00E941B1141E066E083E00E9434
:10060000A8148D8740E066E083E00E9424150E94D4
:10061000920B0E94B90E0E94F10A8E870E949809DF
:100620008F870E94EF09888B41E060E08BE694E0C1
:100630000E943C0A40E061E081E694E00E943C0AAE
:100640004BE654E060E08FE494E00E94410B898B1C
:1006500041E654E061E08AE494E00E94410B81119C
:100660007DC08C814D81842B9E81892B2F81822B93
:100670004885842B9985892B2A85822B4B85842B51
:100680009C85892B2D85822B4E85842B9F85892BDC
:100690002889822B4989842B99812A81922B4B812D
:1006A000942B912B2B89922B892B11E0811101C066
:1006B00010E00E94160C811509F452C041E04983F4
:1006C0006DE071E080E00E94B9126EE171E081E0BE
:1006D0000E94B9120E94A00B0E94F1090E942317E8
:1006E00078948FE291E00E9498174A89842F90E0D5
:1006F0000E9412028EE793E00E94981780E491E036
:100700000E94C90085E491E00E94C9008981811599
:1007100039F081E00E94030C81E591E00E94C9005C
:100720003FB7F894209157041092570480915604D3
:10073000811571F0109256048091540490915504E3
:100740008F3F980729F001968093540490935504A5
:100750003FBF211529F30E944F0CE2CF11E0A9CF32
:1007600040E050E061E070E082E291E00E94300CF5
:10077000898340E050E061E070E081E690E00E9413
:10078000300C8A8341E050E065E070E080EE90E05C
:100790000E94300C8B8343E050E065E070E089E517
:1007A00090E00E94300C8C8344E050E062E070E006
:1007B00088E890E00E94300C8D8345E050E069E1CC
:1007C00070E089E490E00E94300C8E8347E050E0B6
:1007D00064E670E08DE592E00E94300C8F834BE080
:1007E00050E064EF71E087E590E00E94300C8111E9
:1007F00065CF89819A81892B2B81822B4C81842B17
:100800009D81892B2E81822B4F81842B91E09983AE
:10081000811101C019822981212B298351CFFC012B
:10082000892B91F06115710579F04115510561F041
:1008300060837183428353831482158216821782E8
:100840001086118680E0089581E00895FC01892BCF
:1008500031F12FB7F89440855185828193814817F3
:100860005907D8F4A081B18184819581A80FB91F5F
:100870006C93848195810196848395834281538111
:100880008417950710F01482158280859185019652
:100890008087918780E02FBF089581E0FCCF81E0C1
:1008A0000895FC01892B41F16115710529F12FB7DC
:1008B000F89480859185892BE9F0A081B1818681AA
:1008C0009781A80FB91F8C91DB018C93868197814A
:1008D000019686839783428153818417950710F090
:1008E000168217828085918501978087918780E0A5
:1008F0002FBF089581E0FCCF81E0089580915804D6
:100900008F5F843618F48093580408951092580429
:100910008091590490915A04A0915B04B0915C04B9
:100920000196A11DB11D8093590490935A04A09380
:100930005B04B0935C0408952FB7F8946091590458
:1009400070915A0480915B0490915C042FBF0895CC
:10095000AF92BF92CF92DF92EF92FF92CF93DF934D
:10096000CDB7DEB72B970FB6F894DEBF0FBECDBF65
:1009700069837A838B839C834A875B87452B09F441
:100980006FC02A3008F46CC020E13EE040E050E047
:100990000E94FE172D833E834F8358872CE3C22E7F
:1009A000D12CE12CF12CA70196010E94FE1729877A
:1009B00069817A818B819C81A70196010E94FE1733
:1009C000B62E69817A818B819C8120E43EE745E0E7
:1009D00050E00E94FE176AE0C62EB901CA01A701C5
:1009E00096010E94FE17605DEA85FB8560836D813C
:1009F0007E818F819885A70196010E94FE17A62E01
:100A0000B901CA01A70196010E94FE17605DEA853F
:100A1000FB85618380E38A0D82833AE33383898592
:100A20006AE00E94DE17805D8483905D9583368343
:100A30008B2D0E94DE17805D8783905D90871186E5
:100A400080E02B960FB6F894DEBF0FBECDBFDF91CE
:100A5000CF91FF90EF90DF90CF90BF90AF9008952F
:100A600081E0EFCFEF92FF920F931F93CF93DF932D
:100A700000D000D000D0CDB7DEB7FC018B017E01E5
:100A80008FEFE81AF80A3097E9F480E3898321E0D0
:100A9000822F90E0F701E20FF11DD801EE16FF065C
:100AA00011F5080F191FF80110820F900F900F9089
:100AB0000F900F900F90DF91CF911F910F91FF90AA
:100AC000EF90089520E0CF016AE070E00E94EA17FD
:100AD000D701A20FB11D805D8C932F5FCF01FB0169
:100AE0000A9788F7D5CF22912D93D8CF4F925F9256
:100AF0006F927F928F929F92AF92BF92EF92FF92EE
:100B00000F931F93CF93DF93CDB7DEB7A9970FB69F
:100B1000F894DEBF0FBECDBFBE01605E7F4FCE0139
:100B200084960E94C00F8111F8C00E949C044B0162
:100B30005C0148A059A06AA07BA000E010E09801E9
:100B400084149504A604B70490F064197509860905
:100B500097092CE330E040E050E00E94FE17890145
:100B60002F30310510F42FE030E02F503109C9014A
:100B7000CB966CE370E00E94EA176EA37FA39B0103
:100B8000AAE0B0E00E94CF17693771058105910591
:100B900020F068E770E080E090E068A779A72091F6
:100BA0005F0430916004DC01CB01820F931FA11D13
:100BB000B11D109711F08FEF9FEF80935F0490931A
:100BC000600480915D0490915E04019680935D04C1
:100BD00090935E04ECA1FDA1CF0168EE73E00E944A
:100BE000EA17CB012AE030E0B9010E94EA17805DE4
:100BF0008B8FCF0164E670E00E94EA17CB01B90148
:100C00000E94EA17805D8C8FCF01B9010E94EA171C
:100C1000482FCB01B9010E94EA17805D8D8F405D9E
:100C20004E8F1F8E7E018BE0E80EF11CA701B201F2
:100C3000C3010E94A8047E2C6F2C81111B862AE020
:100C40007E018FEFE81AF80AA701B401C5010E94DE
:100C5000A8048111198280E691E00E94981786E726
:100C600091E00E949817CE014B960E9498178FE74B
:100C700091E00E949817872D962D0E9498178AE878
:100C800091E00E949817C7010E949817BE016B5E01
:100C90007F4FC8010E94320585E991E00E949817B4
:100CA000CE0145960E94981780EA91E00E9498171D
:100CB000BE016B5E7F4F8FE090E00E94320585EAB7
:100CC00091E00E949817CE0145960E94981780EAFD
:100CD00091E00E949817BE016B5E7F4F8EA19FA18D
:100CE0000E94320580EB91E00E949817CE01459654
:100CF0000E949817BE016B5E7F4F88A599A50E9440
:100D000032058BEB91E00E949817CE0145960E9428
:100D1000981786EC91E00E949817A9960FB6F89460
:100D2000DEBF0FBECDBFDF91CF911F910F91FF901E
:100D3000EF90BF90AF909F908F907F906F905F905B
:100D40004F90089580915F04909160040895809180
:100D50005D0490915E04089510925F041092600407
:100D600010925D0410925E040895FC0140819C0184
:100D700001964F7DD1F7C9012F5F3F4FFC014081A4
:100D80004032C9F30895FC0120E080E090E05AE091
:100D9000308140ED430F4A3038F0211599F0FB01C6
:100DA0008083918380E008953196589FD001599FA8
:100DB000B00D1124CD01C097830F911D37FD9A9579
:100DC00021E0E6CF81E008950C942C10CF93DF93BF
:100DD000CDB7DEB7C054D1090FB6F894DEBF0FBE51
:100DE000CDBFCE0101960E942D0E811104C0CE010F
:100DF00001960E949817C05CDF4F0FB6F894DEBFD3
:100E00000FBECDBFDF91CF9108950E9498178EE756
:100E100093E00C9498178EED91E00E94050782E014
:100E200092E00E9405078AE292E00E94050788E5A9
:100E300092E00C9405070E94AC060E94AF1085E773
:100E400092E00C940507CF93DF93CDB7DEB76097A0
:100E50000FB6F894DEBF0FBECDBF0E946B1493E5B2
:100E600099832CE42A832FE42B8324E52C839D8310
:100E70009DE39E83FE01379625E030E061E0462F3A
:100E8000022E01C0440F0A94EAF7482399F091E337
:100E900091932150310998F71D86CE0101960E9449
:100EA000050760960FB6F894DEBF0FBECDBFDF9189
:100EB000CF91089590E3ECCFEF92FF920F931F93A1
:100EC000CF93DF9300D000D000D0CDB7DEB78C0138
:100ED000FB019A01452BB1F48081D801A80FB11D07
:100EE00080E38C9380818F5F80830F900F900F90B1
:100EF0000F900F900F90DF91CF911F910F91FF9066
:100F0000EF90089540E07E018FEFE81AF80AC901DA
:100F10006AE070E00E94EA17D701A40FB11D805D5E
:100F20008C934F5FC9019B010A9788F74E0D5F2D87
:100F3000511DE416F506C9F28081800F912F911D95
:100F4000DA012E91AD01DC012C9380818F5F8083CB
:100F5000F0CF1F93CF93DF93CDB7DEB7A1970FB636
:100F6000F894DEBF0FBECDBF83E5898394E59A83F5
:100F700021E42B839C838D8386E089A38DE38E837C
:100F80000E942710AC01BE016F5D7F4FCE0101961C
:100F90000E945C0789A191E0980F99A3FE01319608
:100FA000E80FF11D1CE210830E94A706AC01BE01F0
:100FB0006F5D7F4FCE0101960E945C0789A191E091
:100FC000980F99A3FE013196E80FF11D10830E943E
:100FD000A206AC01BE016F5D7F4FCE0101960E945B
:100FE0005C0789A191E0980F99A3FE013196E80F63
:100FF000F11D10830E94130C482F50E0BE016F5D5D
:101000007F4FCE0101960E945C0789A1FE013196B7
:10101000E80FF11D1082CE0101960E940507A196EE
:101020000FB6F894DEBF0FBECDBFDF91CF911F91F9
:101030000895CF93DF93CDB7DEB72B970FB6F89413
:10104000DEBF0FBECDBF86E4898382E58A8385E457
:101050008B838C8385E08B878DE38D830E94DB0BF4
:10106000482F50E0BE01655F7F4FCE0101960E9480
:101070005C078B85FE013196E80FF11D1082CE01D1
:1010800001960E9405072B960FB6F894DEBF0FBE9F
:10109000CDBFDF91CF9108956417750718F026171B
:1010A000370720F488E792E00C940507FC01608381
:1010B00085E792E0F9CFFC01DB019C9180819111E1
:1010C00006C08F7D91E0811113C0892F089581158D
:1010D00079F06F5F7F4F31962FE9280F2A3108F49E
:1010E00080522FE9290F2A3108F49052981721F3E2
:1010F00090E0EBCFCF93DF9300D0CDB7DEB78983FD
:101100009A836DE970E00E945B08811559F081E0D7
:101110000E94F30B85E792E00F900F90DF91CF9143
:101120000C94050766EA70E089819A810E945B0849
:10113000811511F080E0ECCF82E892E0EDCFCF9303
:10114000DF9300D0CDB7DEB789839A830E94E10B8D
:10115000039741F08AE892E00F900F90DF91CF91D2
:101160000C94050766ED70E089819A810E945B0806
:10117000811531F080E00E941B1185E792E0ECCFF1
:1011800066EE70E089819A810E945B08811511F0FA
:1011900081E0F1CF82E892E0DFCFCF93DF9300D000
:1011A000CDB7DEB789839A830E94E10B039741F0A4
:1011B0008AE892E00F900F90DF91CF910C94050791
:1011C00066ED70E089819A810E945B08811531F09B
:1011D00080E00E94171185E792E0ECCF66EE70E0A8
:1011E00089819A810E945B08811511F081E0F1CF1D
:1011F00082E892E0DFCF0F931F93CF93DF9300D06D
:10120000CDB7DEB78C0163E972E00E945B088115FF
:1012100021F1C8010E94B506BE016F5F7F4F0E9499
:10122000C306811551F088E792E00F900F90DF918F
:10123000CF911F910F910C94050769817A8124E663
:1012400030E041E050E085E690E00F900F90DF91B4
:10125000CF911F910F910C944C086AE972E0C8017C
:101260000E945B08811599F0C8010E94B506BE0175
:101270006F5F7F4F0E94C3068111D5CF69817A814C
:101280002CE330E040E050E084E690E0DECF60EA1E
:1012900072E0C8010E945B08811599F0C8010E94A4
:1012A000B506BE016F5F7F4F0E94C3068111BBCFA1
:1012B00069817A812FE030E042E050E083E690E0FF
:1012C000C4CF65EA72E0C8010E945B08811599F0FD
:1012D000C8010E94B506BE016F5F7F4F0E94C30622
:1012E0008111A1CF69817A812CE330E04AE050E09E
:1012F00082E690E0AACF6DEA72E0C8010E945B0826
:10130000811599F0C8010E94B506BE016F5F7F4F3D
:101310000E94C306811187CF69817A8124E630E07B
:1013200040E050E081E690E090CF82E892E07DCF0F
:101330008AE0809365008FE08093640085E080936D
:10134000630084E1809362008EE18093610080E01D
:101350000895EF92FF920F931F93CF93DF938C0129
:1013600081E00115110529F1F80101900020E9F74C
:101370003197E01B83EB92E0E93158F535ECE32E31
:1013800033E0F32EC0E0D0E0F70160817181C80145
:101390000E945B088115A1F0C8010E94B506CC0F20
:1013A000DD1FCC0FDD1FCB53DC4FEA81FB8109959C
:1013B00080E0DF91CF911F910F91FF90EF90089502
:1013C0002196F4E0EF0EF11CCB30D105E9F682E86E
:1013D00092E00E940507ECCF80916100089580E0C3
:1013E0000895CF93DF93CDB7DEB764970FB6F89427
:1013F000DEBF0FBECDBF0E94D80B8B8B0E94DB0BD4
:101400008A8B0E94DE0B8C8B0E943E0B682F8B898F
:101410000E94DA138A890E94B41086E4898382E5E7
:101420008A8385E48B838C838AE38D839A89905D9C
:101430009E8390E29F8398872FE4298723E42A875D
:101440002B878C878C89805D8D879E879F87988B63
:10145000198ABE016F5F7F4F80E00E94B91267EF6B
:1014600072E081E064960FB6F894DEBF0FBECDBF88
:10147000DF91CF910C94B912FC01862F108211825A
:101480001282138214826583468317821086118626
:101490000C941B11CF93DF93EC01E881F981E930C3
:1014A000F10598F4E85DF74E0C9420188C818115B5
:1014B00031F084E18A831B8281E088831982DF9185
:1014C000CF9108958C81811103C018821982F7CFC2
:1014D0008A819B8101978A839B83892B81F782E094
:1014E000ECCF8E818115B1F00E94E60B811551F091
:1014F0000E94D20E8D810E94171184E68A831B827E
:1015000083E0DBCF87E00E94B91188EC8A831B82DD
:1015100087E0D3CF0E947605EDCF8A819B8101972A
:101520008A839B83892B59F687E00E94BF11CDCF18
:101530008A819B81019719F08A839B83C0CF84EFB6
:1015400091E08A839B8384E0B8CF8C81811531F050
:1015500080ED97E08A839B8385E0AFCF8A819B8172
:1015600001978A839B83892B09F0A9CF8D810E94E3
:101570001B1184E68A831B8286E09FCF8C818111B8
:1015800006C08F81988501968F839887EFCF8A81D7
:101590009B8101978A839B83892B09F090CF81E0FF
:1015A00089878D810E941B1144E650E063E087E04B
:1015B0000E94C51188E081CF8A819B8101978A832F
:1015C0009B83892B09F481CF7ACF8C81811177CFCE
:1015D00019867BCFFC0164830895FC018081918191
:1015E00008951092750480E00895EF92FF921F9382
:1015F000CF93DF9300D0CDB7DEB7BE016F5F7F4FD3
:1016000082E00E949114182F811136C00E94EC09CB
:10161000282FE980FA8080917504811119C030E08B
:10162000AFEFB3E00E94CF1724E640E050E00E9405
:10163000FE17E216F30618F481E080937504812FFB
:101640000F900F90DF91CF911F91FF90EF90089531
:10165000265F253608F024E630E0AFEFB3E00E94C5
:10166000CF1724E640E050E00E94FE17E216F30692
:1016700030F310927504E3CF11E0E1CF809175044F
:101680000895FC01892B51F04115510539F0608313
:10169000418352831382148280E0089581E008958B
:1016A0000F931F93CF93DF9300D00F92CDB7DEB788
:1016B0008C01009759F481E08B838B810F900F9000
:1016C0000F90DF91CF911F910F910895BE016F5F31
:1016D0007F4FFC0180810E9491148B838111EBCF9D
:1016E000F801838129813A81811106C02935324070
:1016F000B8F4F8011482E1CF61E02039314008F4F8
:1017000060E08617B1F3F80184818F5F84838430B1
:10171000A0F263831482818192810E94EA0ACDCF74
:1017200061E0F1CF1092790410927A04109278045B
:1017300086E08093660010927704109276040895F4
:101740000E943E14811531F084E080937904109258
:101750007A0408950E946B1480937804982F9695CC
:101760009575891B982F9373869586958373980F2B
:10177000892F82958F70890F8F708093770496E000
:10178000981B9093660090917604981710F48093BC
:1017900076042091790430917A0423503109223063
:1017A0003105B8F2863011F482E0CFCF81E0CDCFA1
:1017B000809178040895809166000895809177045F
:1017C00008958091790490917A0408958091790424
:1017D00090917A04019729F481E09091660091112B
:1017E00001C080E0089581110CC0809166008111D4
:1017F00006C082E08093790410927A04089581E013
:10180000F9CF83E0F7CF81110CC080916600811180
:1018100006C082E08093790410927A04089581E0F2
:10182000F9CF84E0F7CF809176040895E0E8F4E002
:1018300010821182128213821482158216823796C8
:1018400084E0E43DF807A1F710927F0410927B0436
:1018500010927C0410927D0410927E0480E0089522
:101860009C01892BD1F061157105B9F090917F042D
:101870009C3098F487E0989FF0011124E058FB4FCA
:1018800020833183628373834483558381E086831D
:101890009F5F90937F0480E0089581E008951F93F7
:1018A000CF93DF9380917B0490917C04A0917D0481
:1018B000B0917E040196A11DB11D80937B0490938D
:1018C0007C04A0937D04B0937E0410E080917F049B
:1018D000181720F0DF91CF911F91089587E0189F8E
:1018E000E0011124C058DB4F8E818115D9F02C8185
:1018F0003D8160917B0470917C0480917D04909186
:101900007E04620F731F811D911D2A813B8140E07F
:1019100050E00E94FE17672B682B692B19F4E881B1
:10192000F98109951F5FD2CFFC01E60FF11DDA01A5
:101930008C91811511F06F3610F0862F08954F5F4E
:101940005F4F81936F5FF3CF4F925F926F927F9261
:10195000AF92BF92CF92DF92EF92FF920F931F93BD
:10196000CF93DF93CDB7DEB72A970FB6F894DEBFDB
:101970000FBECDBF7C01162F29013A01411451043D
:1019800061047104F1F46F3630F4FC01E60FF11DCF
:1019900080E380831F5F812F2A960FB6F894DEBF05
:1019A0000FBECDBFDF91CF911F910F91FF90EF90B0
:1019B000DF90CF90BF90AF907F906F905F904F90EF
:1019C00008956E018FEFC81AD80A560100E0B201DF
:1019D000C3012AE030E040E050E00E94FE17605D65
:1019E000F50160830F5FFAE04F1651046104710442
:1019F00078F4D601A00FB11DF701E10FF11D1F36DC
:101A000050F68E9181931F5FAC15BD05C1F7C3CF12
:101A10008FEFA81AB80A29013A010A30C1F6E9CFB6
:101A20006E3698F4DC01A60FB11DE42FE295EF703D
:101A3000F0E0EF50FC4F80818D934F70E42FF0E089
:101A4000EF50FC4F80818C936E5F862F08951F931B
:101A5000CF93DF9300D00F92CDB7DEB78A839B83FD
:101A600047E053E060E00E94940C182F0E94DB0BCB
:101A7000282F30E040E050E0612F8A819B810E9456
:101A8000A40C4EE053E0682F8A819B810E94940C45
:101A900089830E94DE0B282F30E040E050E069810E
:101AA0008A819B810E94A40C42E153E0682F8A81C5
:101AB0009B810E94940C89830E946B14482F69813A
:101AC0008A819B810E94100D48E153E0682F8A8132
:101AD0009B810E94940C89838BE694E00E94ED0A1E
:101AE0004EEC52E0893040F4E82FF0E0EE0FFF1F9B
:101AF000E45FFB4F4081518169818A819B810E9413
:101B0000940C4DE153E0682F8A819B810E94940CD4
:101B1000898381E694E00E94ED0A4EEC52E0893020
:101B200040F4E82FF0E0EE0FFF1FE45FFB4F408131
:101B3000518169818A819B810E94940C43E253E028
:101B4000682F8A819B810E94940C89830E942710B0
:101B50009C0140E050E069818A819B810E94A40C35
:101B600047E253E0682F8A819B810E94940C89830D
:101B70000E94A7069C0140E050E069818A819B8118
:101B80000E94A40C4BE253E0682F8A819B810E9443
:101B9000940C89830E94A2069C0140E050E0698178
:101BA0008A819B810E94A40C41E353E0682F8A81C3
:101BB0009B810E94940C89830E94E10B4EEC52E0C1
:101BC000853040F4E82FF0E0EE0FFF1FEE5FFB4F93
:101BD0004081518169818A819B810E94940C48E3F4
:101BE00053E0682F8A819B810E94940C89830E9414
:101BF0009C049B01AC0169818A819B810E94A40C99
:101C00008983682F611B70E08A819B81810F911D00
:101C10000E946E14182F4DE353E069818A819B81E5
:101C20000E94940C412F682F8A819B810E94100D85
:101C30004EE753E0682F8A819B810E94940C2A8191
:101C40003B81280F311DF901108280E00F900F9029
:101C50000F90DF91CF911F910895009711F00C9490
:101C6000270D81E00895CF93DF93CDB7DEB7C0573E
:101C7000D1090FB6F894DEBF0FBECDBFCE010196DD
:101C80000E94270DCE0101960E949817C059DF4F80
:101C90000FB6F894DEBF0FBECDBFDF91CF91089590
:101CA0007F928F929F92AF92BF92CF92DF92EF92EC
:101CB000FF920F931F93CF93DF93CDB7DEB72A9791
:101CC0000FB6F894DEBF0FBECDBF5C018B0169017A
:101CD0007A01C114D104E104F104F1F4DB018C9127
:101CE000F501E80FF11D80E380838C918F5F8C9369
:101CF0002A960FB6F894DEBF0FBECDBFDF91CF910D
:101D00001F910F91FF90EF90DF90CF90BF90AF9019
:101D10009F908F907F900895712C4E01BFEF8B1A8A
:101D20009B0AB601C7012AE030E040E050E00E9483
:101D3000FE17F401E70DF11D605D60837394C60129
:101D4000D70169017A010A97A105B10550F7F4019D
:101D5000E70DF11D8E169F0659F2D8018C91D50121
:101D6000A80FB11D82918C93D8018C918F5F8C93B9
:101D7000F1CFE8EDF4E01082118212821382148216
:101D8000158216821782389685E0E830F80799F7B1
:101D900081E08093D6041092D7041092D40410925C
:101DA000D5040895EF92FF920F931F93CF93DF9383
:101DB000CDB7DEB761970FB6F894DEBF0FBECDBFCB
:101DC000E8EDF4E000E0F780F11409F4B6C00F5F2D
:101DD00038960630C1F761960FB6F894DEBF0FBE95
:101DE000CDBFDF91CF911F910F91FF90EF9008959C
:101DF0002F5F3F4F2630310559F0462F022E01C08C
:101E0000440F0A94EAF7482399F7FF24F394F20E5B
:101E1000F801E852FB4FF68281E087838091D60477
:101E20009091D7048F3027E2920708F083C0019683
:101E30008093D6049093D7048091D4049091D504D4
:101E400001968093D4049093D5040E94DB0B888B79
:101E5000C80188529B4F7C01DC01ED91FD91CF01BF
:101E600068EE73E00E94EA17CB012AE030E0B90186
:101E70000E94EA17805D8B87CF0164E670E00E94C4
:101E8000EA17CB01B9010E94EA17805D8C87CF0168
:101E9000B9010E94EA17482FCB01B9010E94EA1745
:101EA000805D8D87405D4E871F86F701628173815B
:101EB000848195817E01FFEFEF1AFF0AA7010E943E
:101EC000A804811561F08DE289838A838B839AE36C
:101ED0009C838D838E839F83888789871A8688E673
:101EE00093E00E94981786E791E00E949817CE0130
:101EF0000B960E94981781E893E00E949817C701FB
:101F00000E9498178CE893E00E949817F801E85215
:101F1000FB4F8681805D0E9484178FE993E00E94C9
:101F200098178889805D0E9484178AEA93E00E944E
:101F3000981751CF81E090E07BCF28E0029F80018D
:101F40001124C80188529B4F888B998B8091D604AD
:101F50009091D704A889B9898D939D930E949C0480
:101F6000E889F98962837383848395830E946B1463
:101F7000282F217080FF49CF21E030E0B9013ACF0E
:101F80008F929F92AF92BF92CF92DF92EF92FF9289
:101F9000CF93DF939C01892B09F446C0611571052D
:101FA00009F442C0A8EDB4E08FEFF82EEF2C6701E2
:101FB000E6E090E017968C911797811571F01296D4
:101FC0008D909D90AD90BD9016978C149D04AE049D
:101FD000BF0418F464017501E92F9F5F18969630CD
:101FE00049F7E63008F588E0E89FF0011124E8524F
:101FF000FB4F80819181D9018D939D938281938143
:10200000A481B581EB0188839983AA83BB8317825E
:1020100080E0DF91CF91FF90EF90DF90CF90BF9065
:10202000AF909F908F90089581E0F3CFE8EDF4E0BA
:1020300080E0978191118F5F389695E0E830F9073D
:10204000C1F708958091D6049091D70408958091A6
:10205000D4049091D5040895EF92FF920F931F93AB
:10206000CF93DF93CDB7DEB769970FB6F894DEBF95
:102070000FBECDBF08ED14E094E5E92E9CE2F92EE9
:10208000F8018781811509F456C0E982FBE4FA83DF
:10209000EB8284E0898FFC82F8012081318140E06D
:1020A00050E0BE01675E7F4FCE0101960E94500E48
:1020B000898D91E0980F998FFE013196E80FF11DFF
:1020C000F082F8012281338144815581BE01675E2F
:1020D0007F4FCE0101960E94500E898D91E0980F9E
:1020E000998FFE013196E80FF11DF082F8012681EB
:1020F00030E040E050E0BE01675E7F4FCE010196C8
:102100000E94500E898DFE013196E80FF11D9DE071
:10211000908391E0980FFE013196E90FF11D9AE04E
:1021200090838E5FFE013196E80FF11D1082CE0183
:1021300001960E949817085F1F4FE5E008301E07C0
:1021400009F09ECF69960FB6F894DEBF0FBECDBFE3
:10215000DF91CF911F910F91FF90EF900895109212
:10216000D4041092D5040895EF92FF920F931F9319
:10217000CF93C82F873008F0CFE0809108058115F4
:1021800059F0809167008C1307C080E0CF911F91B8
:102190000F91FF90EF9008958EE1E82E84E0F82EE5
:1021A00000E010E081E0002E01C0880F0A94EAF7F9
:1021B0008C2341E0811101C040E0F701608181E0A2
:1021C0000E94241581110EC0FFEFEF1AFF0A0F5F66
:1021D0001F4F0430110531F7C093670081E08093F1
:1021E0000805D3CF81E0D2CF8FE00C94B410CF9309
:1021F000DF93CEE1D4E041E0688181E00E94A81441
:1022000081110BC0219684E0C232D807A1F7109249
:102210000805DF91CF910C94F41081E0DF91CF910C
:102220000895982F81E0923008F480E0089560EDE1
:1022300077E00C94EF166CED75E00C94EF16CF93ED
:10224000DF9300D00F92CDB7DEB789836B834A83CB
:10225000683038F081E00F900F900F90DF91CF91B0
:10226000089542E06B8189810E94A8148111F2CF08
:102270009B8129E0929FF0011124E75FFA4F2981A9
:10228000238390839A819183148215821682178208
:10229000108691E09283DFCF0F931F93CF93DF934C
:1022A0000F92CDB7DEB709E015E0F8018281811504
:1022B000B9F0AE014F5F5F4F608183810E94781556
:1022C00081E090E0F80131812981321380E0F8014A
:1022D000248135812817390781F08483158210867F
:1022E000075F1F4FF5E001351F07F9F680E00F90FB
:1022F000DF91CF911F910F9108952085253020F017
:10230000F80186831782ECCF2F5F2087253041F7B5
:10231000F7CF883060F499E0899FF0011124E75FDE
:10232000FA4F8281811519F086819781089580E0A6
:1023300090E008950E9489119C0181E021303105CF
:1023400009F080E00895CF93C82F873019F081E01D
:10235000CF9108950E945C178111F9CFC093590560
:102360001092580510925705109256051092550577
:10237000EFCF873011F40C94651781E00895873012
:1023800011F40C94691781E00895362F9091580547
:10239000913029F1611529F14115510511F1209173
:1023A000590528131EC0CA016AE070E00E94EA17AE
:1023B000892BB9F481E080935805809357051092DA
:1023C00056053093550510925305109254056093AD
:1023D000510570935205822F0E94B91190E0892F08
:1023E000089591E0FCCF80915805811519F18091F5
:1023F000530590915405019680935305909354058D
:1024000020915105309152058217930798F0109250
:1024100053051092540580915705813069F48091DD
:1024200059050E94BF1110925705809156058F5F84
:102430008093560580E0089590915605809155054A
:10244000981718F010925805F5CF809159050E9401
:10245000B91181E080935705EDCFCF93DF930F92B1
:10246000CDB7DEB789830E948F16811113C08CE728
:102470000E94BC1681110EC00E94BC1681110AC0B8
:1024800089810E94BC16811105C00F90DF91CF9108
:102490000C94A51681E00F90DF91CF9108950E94D2
:1024A0008516811511F081E008952FE788E391E00A
:1024B000215080409040E1F700C0000088E30E9476
:1024C0002D128111F0CF8FE097E20197F1F700C054
:1024D000000088E30E942D128111E5CF8FEC97E078
:1024E0000197F1F700C0000088E30E942D128111CE
:1024F000DACF88E00E942D128111D5CF81E00E94B1
:102500002D128111D0CF8FE99FE00197F1F700C024
:10251000000086E00E942D128111C5CF8CE00E9440
:102520002D128111C0CF10925A050895CF93DF93D9
:102530000F92CDB7DEB789830E948F16811114C028
:102540008CE70E94BC1681110FC080E40E94BC166B
:1025500081110AC089810E94BC16811105C00F90AB
:10256000DF91CF910C94A51681E00F90DF91CF9170
:1025700008954F925F926F927F928F929F92AF9247
:10258000BF92CF92DF92EF92FF920F931F93CF9360
:10259000DF93CDB7DEB762970FB6F894DEBF0FBEFC
:1025A000CDBF982E82E09816C0F081E062960FB6FB
:1025B000F894DEBF0FBECDBFDF91CF911F910F9179
:1025C000FF90EF90DF90CF90BF90AF909F908F9053
:1025D0007F906F905F904F9008956115710529F37A
:1025E0005E01EFEFAE1ABE0AFB019B01205F3F4F79
:1025F000D50190E0650191112EC08081811551F1C6
:102600008D933196E217F307B1F7092D10E011957C
:1026100001951109007110E0055A1A4F90E1E92E59
:10262000812C098B1A8B552490FA56F891FA57F899
:10263000F0E18F1691F080915A05811531F0F50186
:102640009081F8018081981741F0F0E1EF120AC003
:10265000E82C08C091E080E2D3CF80E1E81218C0F6
:1026600080E1E82E83948FEFA81AB80A0F5F1F4FFE
:10267000E1E18E12DDCF80E1F601A989BA890190EE
:102680000D928A95E1F7F1E09F16F9F080E08ECF88
:10269000482C4E188E1421F3852D8E2980680E94B7
:1026A0002D12811182CFEC0CFD2CF11C3701F301AE
:1026B00080810E949612811178CFFFEF6F1A7F0AF6
:1026C000862D8E19841598F3CBCF90925A05DECFC4
:1026D000CF92DF92EF92FF920F931F93CF93DF93EE
:1026E00000D000D00F92CDB7DEB76C01D9828A83BB
:1026F0008E010F5F1F4F7E0183E0E80EF11CED821B
:10270000FC826D817C81F80180810E940A1781150D
:1027100079F081E00F900F900F900F900F90DF9164
:10272000CF911F910F91FF90EF90DF90CF90089580
:102730000F5F1F4F0E151F0521F741E064E081E098
:102740000E9424158111E5CF40E064E081E00E9401
:1027500024158111DECFC0927B05D0927C05DACFA3
:102760000E940117811117C041E064E081E00E94DE
:10277000A814811110C040E064E081E00E9424159B
:10278000811109C08FEF9FEF80937B0590937C05AB
:1027900001960C94681381E008950E94B013811192
:1027A00007C010927E0510927F0510927D05089556
:1027B00081E008950F931F93CF93DF938F7340E0D1
:1027C00050E09A01E901E1E0F0E0AE2F022E01C0F5
:1027D000AA0F0A94EAF7A82379F1DF01042E02C0B8
:1027E000AA0FBB1F0A94E2F7CA2BDB2B2F5F3F4FC8
:1027F0004E5F5F4F2630310541F76111D061809106
:102800007D05811539F080917E0590917F058C17AB
:102810009D0761F0CE010E946813811117C0C0931B
:102820007E05D0937F0581E080937D0580E0DF9178
:10283000CF911F910F910895DA01A3958F0102C0E6
:10284000000F111FAA95E2F7D801CECF81E0EFCF9C
:10285000CF93C2E042E06C2F82E00E94A814811165
:102860000BC0CF5FC830B1F710928205109281057E
:1028700010928005CF91089581E0FCCFCF93DF9334
:102880000F92CDB7DEB71982BE016F5F7F4F82E036
:102890000E94971581111DC09981909596959695E6
:1028A00020918105291749F09093810591E090933B
:1028B00080050F90DF91CF9108959091800595301C
:1028C000C0F79F5F90938005953099F7209382051C
:1028D000F0CF81E0EECF809182050895680F791FD7
:1028E00020E0009731F420E007C0FC018191282707
:1028F000CF0186179707C9F7822F0895823010F00D
:10290000833069F49FEF960F973048F48295880FD3
:10291000880F807C87B9606866B980E0089581E09F
:102920000895883098F46115710581F097B1907E13
:10293000982B97B9349A369A349BFECF349A84B147
:1029400025B1FB018083218380E0089581E0089513
:102950006830A8F4823009F441C070F4811122C0BB
:1029600081E001C0880F6A95EAF7413051F49AB3CB
:10297000892B8ABB80E00895833009F44BC081E045
:102980000895282F2095423039F49AB392239ABBA8
:102990009BB3892B8BBBEECF8AB382238ABB8BB3CD
:1029A0008223F8CF81E001C0880F6A95EAF74130B1
:1029B00021F497B3892B87BBDDCF282F2095423098
:1029C00039F497B3922397BB98B3892B88BBD2CFA6
:1029D00087B3822387BB88B38223F8CF81E001C00D
:1029E000880F6A95EAF7413021F494B3892B84BBB0
:1029F000C1CF282F2095423039F494B3922394BB51
:102A000095B3892B85BBB6CF84B3822384BB85B3B2
:102A10008223F8CF81E090E09C0101C0220F6A95EB
:102A2000EAF7413021F481B3822B81BBA3CF922FEF
:102A3000909581B3892381BB82B3423019F4822BF4
:102A400082BB98CF8923FCCF6830B0F4823061F12B
:102A500088F4811117C081E090E09C0101C0220F31
:102A60006A95EAF7622F8BB3413041F4822B8BBB1E
:102A700080E00895833051F181E0089560956823E6
:102A80006BBBF6CF81E090E09C0101C0220F6A95FC
:102A9000EAF7622F88B3413019F4822B88BBE8CF64
:102AA0006095682368BBE4CF81E090E09C0101C0A1
:102AB000220F6A95EAF7622F85B3413019F4822B11
:102AC00085BBD6CF6095682365BBD2CF81E090E00F
:102AD0009C0101C0220F6A95EAF7622F82B3413050
:102AE00019F4822B82BBC4CF6095682362BBC0CF30
:102AF000FA013097A1F0683090F48230A1F068F4C8
:102B000081110FC089B390E002C0959587956A95B1
:102B1000E2F78170808380E00895833031F081E0B6
:102B2000089586B3F0CF83B3EECF80B3ECCFFB0133
:102B3000309759F0823069F030F4811108C089B3C0
:102B4000808380E00895833031F081E0089586B37A
:102B5000F7CF83B3F5CF80B3F3CF1F920F920FB6A9
:102B60000F9211242F933F934F935F936F937F9313
:102B70008F939F93AF93BF93EF93FF93E091830560
:102B8000F0918405309709F00995FF91EF91BF917D
:102B9000AF919F918F917F916F915F914F913F91F5
:102BA0002F910F900FBE0F901F9018951F920F92AC
:102BB0000FB60F9211242F933F934F935F936F9310
:102BC0007F938F939F93AF93BF93EF93FF93E09186
:102BD0008505F0918605309709F00995FF91EF91F1
:102BE000BF91AF919F918F917F916F915F914F9125
:102BF0003F912F910F900FBE0F901F9018951F922D
:102C00000F920FB60F9211242F933F934F935F9320
:102C10006F937F938F939F93AF93BF93EF93FF93A4
:102C2000E0918705F0918805309709F00995FF91AB
:102C3000EF91BF91AF919F918F917F916F915F9134
:102C40004F913F912F910F900FBE0F901F901895AD
:102C500042E060E082E00C94A81442E061E082E08F
:102C60000C94A81441E061E082E00E94A81440E0C6
:102C700061E082E00C94241541E060E082E00E9473
:102C8000A81440E060E082E00C942415CF93DF9319
:102C900000D0CDB7DEB70E942D1685E38A95F1F7F7
:102CA00000000E94281685E38A95F1F7000019823A
:102CB000AE014F5F5F4F61E082E00E94781589812D
:102CC0008A830E943C1685E38A95F1F700008A8189
:102CD0000F900F90DF91CF910895811599F00E9488
:102CE0002D1685E38A95F1F700000E94281685E3EA
:102CF0008A95F1F700000E943C1685E38A95F1F76A
:102D0000000008950E943216ECCF0E9428160E94FF
:102D10002D1685E38A95F1F7000080E008950E9462
:102D20002D160E94281685E38A95F1F700000E946F
:102D3000321685E38A95F1F700000E943C1685E380
:102D40008A95F1F7000080E008950E94321685E32D
:102D50008A95F1F700000E94281685E38A95F1F71D
:102D600000000E942D1685E38A95F1F7000080EAA5
:102D70008A95F1F780E008950F931F93CF93DF9327
:102D8000C7E0D0E0082F10E0C8010C2E02C09595D6
:102D900087950A94E2F781700E946D162197A0F73B
:102DA0000E944616982F81E0911101C080E0DF91CA
:102DB000CF911F910F91089581B3806381BB82EA07
:102DC0008FBD8AE18EBD8EE487BD8FE186BD93E025
:102DD0009BBD88EE8ABD99BD88BD80E008959B01AA
:102DE000285E3340293E334050F4813020F47BBDCF
:102DF0006ABD80E0089519F479BD68BDFACF81E01D
:102E0000089587B3806A87BBBE9881E58DB97098B5
:102E100080E008956115710541F08FB9779BFECF71
:102E20008FB1FB01808380E0089581E0089588E000
:102E300083BF12BE8DE48CBF89B7826089BF82E0F8
:102E400088BF80E0089583B7887F856083BF80E076
:102E50000895009731F08093890590938A0580E06A
:102E6000089581E008951F920F920FB60F921124DA
:102E70002F933F934F935F936F937F938F939F9382
:102E8000AF93BF93EF93FF93E0918905F0918A058B
:102E9000309709F00995FF91EF91BF91AF919F9104
:102EA0008F917F916F915F914F913F912F910F90F3
:102EB0000FBE0F901F9018958F9A8FE183BD14BCA1
:102EC00088E085BD979880E008958CE185BD80E01D
:102ED000089588E085BD979880E0089540E450E02B
:102EE00065E975E08BE895E00E940F0481110AC046
:102EF0001AB8599810BC93E399B996E890BD98E92F
:102F00009AB9089581E008955D9BFECF8CB980E069
:102F10000895CF93009751F0CFB7F894BC018BE898
:102F200095E00E945104CFBFCF91089581E0FCCF7E
:102F3000CF93DF93EC01892B29F481E006C0219621
:102F40000E94841788818111FACFDF91CF91089573
:102F50001F920F920FB60F9211242F933F934F930E
:102F60005F936F937F938F939F93AF93BF93EF93F1
:102F7000FF936CB18BE895E00E942604FF91EF91DE
:102F8000BF91AF919F918F917F916F915F914F9181
:102F90003F912F910F900FBE0F901F901895A29FF9
:102FA000B001B39FC001A39F700D811D1124911D1D
:102FB000B29F700D811D1124911D0895992778E00D
:102FC000880F991F961708F0961B881F7A95C9F7E6
:102FD00080950895AA1BBB1B51E107C0AA1FBB1F08
:102FE000A617B70710F0A61BB70B881F991F5A9595
:102FF000A9F780959095BC01CD010895A1E21A2E04
:10300000AA1BBB1BFD010DC0AA1FBB1FEE1FFF1F8C
:10301000A217B307E407F50720F0A21BB30BE40BDC
:10302000F50B661F771F881F991F1A9469F7609523
:103030007095809590959B01AC01BD01CF010895DD
:10304000EE0FFF1F0590F491E02D0994F894FFCF47
:10305000560A620A710A980AA50ABE0ADC0A8D0A93
:02306000E50A7F
:10306200FF1E14050F0A060F455252204C4F4E47C1
:103072000D0A00214556542C004C4F542C46554CF9
:103082004C004C4F542C564143414E54004C4F542B
:103092002C4641554C54004D41494E542C4F4E0044
:1030A2004D41494E542C4F464600214556542C451D
:1030B2004E5452592C4752414E542C00454E5452B4
:1030C200592C52454A454354004C414E452C5449D3
:1030D2004D454F55542C494E004C414E452C5449B8
:1030E2004D454F55542C4F555400214556542C4CA8
:1030F2004F542C4D49534D415443482C00214556C1
:10310200542C53434845442C4F56522C00534D41A6
:103112005254205041524B494E4720202000424FEA
:103122004F54494E472E2E2E2020202020200021B1
:103132004556542C424F4F542C43415553453D0064
:10314200424F4F54004346472C44454641554C5448
:10315200004C4F542C4641554C542C494E49540076
:103162003D3D3D3D3D2052454345495054203D3D66
:103172003D3D3D0D0A004944202020203A20000D0B
:103182000A494E202020203A20000D0A4F55542093
:1031920020203A20000D0A4457454C4C203A20008A
:1031A200206D696E000D0A4752414345203A2000C6
:1031B2000D0A484F555253203A20000D0A46454504
:1031C2002020203A20000D0A3D3D3D3D3D3D3D3D44
:1031D2003D3D3D3D3D3D3D3D3D3D3D0D0A00535490
:1031E2004154555320534C4F54533F20465245456A
:1031F2003F205449434B4554533F20535441545369
:103202003F00534554205441524946462F475241AC
:1032120043452F484F4C442F54494D454F55542F49
:103222004C49474854203C6E3E004F50454E204981
:103232004E2F4F55542020434C4F534520494E2F7B
:103242004F55542020286D61696E74656E616E63FE
:1032520065206F6E6C7929004D41494E54204F4EC6
:103262002F4F46462020434C525354415453202062
:1032720048454C50004F4B004552522052414E4758
:10328200450045525220434D4400455252204D4F75
:103292004445005441524946460047524143450085
:1032A200484F4C440054494D454F5554004C4947F2
:1032B200485400455252204C4F4E470053544154FB
:1032C200555300534C4F54533F00465245453F001F
:1032D2005449434B4554533F00534554004F5045C6
:1032E2004E00434C4F5345004D41494E5400434C10
:1032F20052535441545300494E3A2D2D2D20204F04
:1033020055543A2D2D2D0024504B2C463D002C4F68
:103312003D002C4D41503D002C494E3D002C4F5557
:10332200543D002C543D002C583D002C5245563D36
:10333200002C4D4F44453D002C55503D002A004F76
:103342005045520049444C450057414954004155AB
:103352005448004F50454E494E4700504153530088
:10336200434C4F53494E47003D3D3D205041524B47
:10337200494E47205449434B4554203D3D3D0D0A9B
:10338200000D0A54494D4520203A20000D0A534CA5
:103392004F5420203A207375676765737420000DBF
:1033A2000A4652454520203A20000D0A3D3D3D3D4A
:1033B2003D3D3D3D3D3D3D3D3D3D3D3D3D3D3D3D3B
:1033C2003D3D0D0A00BC02E606C3022307CA0219EC
:1033D20008D002E406FB01A907D902FB08DD02CDF1
:1033E20008E2029F08E8027A08EE021B0770020B4D
:1033F2000730313233343536373839414243444568
:1034020046005B013F037D00E8029100440349034B
:103412004E035303DD025B036003C200A5020001F9
:023422000203A3
:00000001FF
